:020000040800F2
:100000004008002079020008671F00080F1E000842
:10001000651F00086F0400080526000800000000A6
:100020000000000000000000000000006B1F00083E
:10003000E104000800000000691F00086D1F0008AF
:10004000930200089302000893020008930200083C
:10005000930200089302000893020008930200082C
:10006000930200089302000893020008930200081C
:10007000930200089302000893020008930200080C
:10008000930200087104000893020008930200081C
:1000900093020008930200089302000893020008EC
:1000A00093020008930200089302000893020008DC
:1000B00093020008930200089302000893020008CC
:1000C00093020008930200089302000893020008BC
:1000D0009302000893020008F92500089302000823
:1000E000930200089302000893020008930200089C
:1000F000930200089302000893020008930200088C
:10010000930200089302000893020008930200087B
:10011000930200089302000893020008E51F0008FC
:10012000930200089302000893020008930200085B
:10013000930200089302000893020008930200084B
:10014000930200089302000893020008930200083B
:10015000930200089302000893020008930200082B
:10016000930200089302000893020008930200081B
:10017000930200089302000893020008930200080B
:1001800093020008930200089302000893020008FB
:100190009302000800000000930200089302000888
:1001A00093020008930200089302000893020008DB
:1001B00093020008930200089302000893020008CB
:1001C00093020008930200089302000893020008BB
:1001D000930200089302000800F002F800F03CF8D7
:1001E0000AA090E8000C82448344AAF10107DA4592
:1001F00001D100F031F8AFF2090EBAE80F0013F0A8
:10020000010F18BFFB1A43F00103184780240000B8
:10021000A0240000103A24BF78C878C1FAD8520749
:1002200024BF30C830C144BF04680C607047000070
:100230000023002400250026103A28BF78C1FBD8EF
:10024000520728BF30C148BF0B6070471FB502F08E
:10025000F7F91FBD10B510BD00F0CFF81146FFF73C
:10026000F5FF02F0E0F900F0EDF803B4FFF7F2FF5C
:1002700003BC00F0F5F80000094880470948004732
:10028000FEE7FEE7FEE7FEE7FEE7FEE7FEE7FEE746
:10029000FEE7FEE704480549054A064B70470000A3
:1002A000D51F0008D90100084002002040080020A6
:1002B000400400204004002053EA020C00F0698052
:1002C0002DE9F04B4FF00006002B1FBFB3FA83F56A
:1002D00003FA05F424FA05F65E4012BF1643B2FA9B
:1002E00082F502FA05F4C5F120051EBF22FA05FCCD
:1002F00044EA0C04203556EA044C4FEA144418BF73
:10030000641C4FF000084FF00009904271EB030CA1
:1003100039D3002919BFB1FA81F701FA07F6B0FA0B
:1003200080F700FA07F6C7F120071EBF20FA07FC86
:1003300046EA0C062037B6FBF4FCA7EB0507103F96
:1003400007F01F0BCBF120060CFA0BFB2CFA06F67C
:1003500044BFB3460026202FA4BF5E464FF0000BDB
:100360005BEA060C08BF4FF0010B19EB0B09ABFB66
:10037000027C48EB0608C01B06FB02CC0BFB03CC3F
:1003800071EB0C01C1E70B46024641464846BDE809
:10039000F08B13B54FF000004FF00001AFF3008079
:1003A000BDE81C4070474FF0000200B5134694466C
:1003B0009646203922BFA0E80C50A0E80C50B1F1BD
:1003C0002001BFF4F7AF090728BFA0E80C5048BFD1
:1003D0000CC05DF804EB890028BF40F8042B08BF6F
:1003E000704748BF20F8022B11F0804F18BF00F86B
:1003F000012B7047704770477047754600F02CF826
:10040000AE4605006946534620F00700854618B001
:1004100020B5FFF73FFFBDE820404FF000064FF04A
:1004200000074FF000084FF0000B21F00701AC4629
:10043000ACE8C009ACE8C009ACE8C009ACE8C00948
:100440008D46704710B50446AFF300802046BDE8E6
:100450001040FFF70ABF000000487047DC01002091
:1004600001491820ABBEFEE7260002007047FEE7F8
:10047000014800F0A9B80000300100200D490268D1
:100480008A4201D20C4901E00B492031D2B2142337
:10049000083AB2FBF3F2436C02F01F0223F00303AD
:1004A0001944816404498031C1640121914001658E
:1004B0007047000008040240000802400179074A22
:1004C00002EB81024265054A4432491E826501F011
:1004D0001F0201219140C16570470000FC080240E5
:1004E000704772B6FEE710B590F825300021012262
:1004F000022B03D00421C163012122E003681C68A0
:1005000024F00E041C60836C1C6824F480741C604E
:1005100003681C6824F001041C6090F84430046CEB
:1005200003F01F0302FA03F36360D0E913345C6045
:10053000436D33B11C6824F480741C60D0E9163418
:100540005C6080F82520002280F82420084610BD39
:1005500070B590F82520002401212346022A07D0F7
:100560000422C26380F8251080F82430012429E099
:100570000268156825F00E0515600268156825F0FB
:1005800001051560826C156825F48075156090F87A
:100590004420056C02F01F0201FA02F26A60D0E901
:1005A00013255560426D32B1156825F480751560CC
:1005B000D0E91625556080F8251080F82430816B2D
:1005C00001B18847204670BDF0B4016C0C68016829
:1005D0000D6890F8442002F01F06042202FA06F388
:1005E000234211D06B070FD50B689B0603D40B6811
:1005F00023F004030B6090F8441001F01F018A40BF
:10060000016C4A60016B1DE0022303FA06F72742E2
:100610004FF0000C4FF0010218D0AF0716D50C6850
:10062000A40605D40C6824F00A040C6080F8252088
:1006300090F8441001F01F018B40016C4B6080F872
:1006400024C0C16A00291AD0F0BC08470823B3406F
:10065000234214D02B0712D50B6823F00E030B6036
:1006600090F84410036C01F01F0102FA01F1596087
:10067000C26380F8252080F824C0416BE2E7F0BC1B
:100680007047000070B504000CD02B4A216814207C
:10069000914209D2294A0A44B2FBF0F0800060641A
:1006A00027480AE0012070BD234A52420A44B2FBA7
:1006B000F0F080006064204808382064022084F84C
:1006C00025000A6847F6F0708243D4E90203184314
:1006D000D4E904352B431843A3691843E36918434D
:1006E000236A1843104308602046FFF7C7FEA0683E
:1006F0000025B0F5804F00D16560A16C20790860BD
:10070000D4E9130141606068401E032808D82046E0
:10071000FFF7D4FE606D0560D4E91601416002E088
:100720006565A565E565E563012084F8250084F825
:100730002450002070BD000008040240F8FFFDBFF7
:10074000000002402DE9F04FDFF82092002301263F
:100750000324A9F1040B85B00F2709F1040AABF1BA
:10076000040EFAE006FA03F52A407CD091F804C0A2
:100770000CF0030CBCF1010F02D0BCF1020F26D12A
:10078000D0F808C0CDF800C04FEA430C04FA0CF8CA
:10079000CDF810C0DDF800C02CEA080CCDF800C080
:1007A000D1F80C80DDF810C008FA0CF8DDF800C0B4
:1007B00048EA0C08C0F80880D0F804C02CEA050C00
:1007C0000D79C5F300159D4045EA0C0545600D798E
:1007D000ED43AD070ED0C5684FEA430804FA08FCA4
:1007E00025EA0C05D1F808C00CFA08FC4CEA050C07
:1007F000C0F80CC00D7905F00305022D16D1DD08F7
:1008000000EB850CCDF808C0DCF820805D074FEACE
:10081000D56C07FA0CF528EA05080D6905FA0CF500
:10082000DDF808C045EA0805CCF8205005684FEA15
:10083000430CCDF808C004FA0CFC25EA0C0591F82D
:1008400004C00CF00308DDF808C008FA0CF848EA08
:100850000508C0F800804D6815F4403F7CD0444D39
:10086000D5F860C000E077E04CF0010CC5F860C03E
:100870002D6E23F0030C05F0010500953D4D6544F8
:100880000295AD684FEA837C4FEA1C7807FA08FCB2
:1008900025EA0C05B0F1904F06D0DFF8DCC06045CA
:1008A00005D14FF0010C20E04FF0000C1DE0DFF807
:1008B000CCC0604502D14FF0020C16E0DFF8C0C09A
:1008C000604502D14FF0030C0FE0DFF8B8C060457F
:1008D00002D14FF0040C08E0DFF8ACC0604502D153
:1008E0004FF0050C01E04FF0060C0CFA08FC4CEA46
:1008F000050C029DC5F808C0D9F80050CC46D1F8C7
:10090000048095435FEAC82800D51543CCF8005011
:10091000DAF80050D446D1F8048095435FEA88287D
:1009200000D51543CCF80050DBF80050DC46D1F878
:10093000048095435FEA883800D51543CCF8005011
:10094000DEF80050F446D1F8048095435FEAC838D9
:1009500000D51543CCF800505B1C0A6832FA03F549
:100960007FF400AF05B0BDE8F08F0000080401403F
:100970000010024000000140000400480008004848
:10098000000C00480010004800140048014880682E
:10099000704700000000002002488168426811444E
:1009A000816070470000002010B50024032000F093
:1009B00095F80F2000F008F808B1012401E000F0DC
:1009C00047F8204610BD000030B505461B4887B0EB
:1009D000816D41F020018165806D06A900F0200045
:1009E000009001A800F060FB00F07EFB1449154A5E
:1009F000B0FBF1F11448491E0260416040F2E73259
:100A00000021C0E90321816000F0D7FD040012D16C
:100A10000D4800F005FE04000DD1372000F030F83D
:100A2000102D07D200222946372000F037F807485A
:100A3000056000E0012407B0204630BD00100240F0
:100A400040420F00001400409001002000000020F0
:100A50000A4882B0016E41F001010166016E01F0A9
:100A600001010091816D41F080518165806D00F040
:100A70008050009002B000F0A1B8000000100240C9
:100A8000002809DB00F01F0201219140400980008D
:100A900000F1E020C0F8001170470000F0B40E4BE8
:100AA0001B680C46C3F30223C3F10705042D00D9CC
:100AB0000425191D072901D2002300E0DB1E0126B1
:100AC00006FA05F1491E214099409E40761E1640C7
:100AD0003143F0BC01F097BD0CED00E0064900F099
:100AE000070208684FF6FF03184040EA0220034A55
:100AF00010430860704700000CED00E00000FA05AC
:100B00002B492C4B0A6832214A432B4940B1B0F59E
:100B1000007F086829D020F4C06040F480602CE099
:100B20000868C0F34120022804D051F8800F20F457
:100B3000807022E0D1F8800020F48070C1F880003D
:100B4000086820F4C06040F400700860B2FBF3F065
:100B5000401C00E0401E4A69520501D50028F9D129
:100B6000486940050AD503207047C0F34120022898
:100B700006D051F8800F40F4807008600020704764
:100B8000D1F8800040F48070C1F88000086820F43B
:100B9000C06040F400700860B2FBF3F0401C00E05D
:100BA000401E4A695205DBD50028F9D1D8E700007C
:100BB0000C00002040420F00007000400248816895
:100BC00041F4804181607047007000402DE9F84396
:100BD000044600680026BB4D00035ED5A86D0027C3
:100BE000C00008D4A86D40F08050A865A86D01270A
:100BF00000F080500090DFF8D092D9F8001041F456
:100C00008071C9F80010FFF7C1FE804606E000BF02
:100C1000FFF7BCFEA0EB080002282BD8D9F8000093
:100C2000C005F5D5D5F8900010F4407014D0216DB2
:100C3000814211D0D5F89000D5F8901020F4407082
:100C400041F48031C5F89010D5F8901021F480312E
:100C5000C5F89010C5F89000C00711D0FFF796FEB8
:100C6000804641F2883907E0FFF790FEA0EB0801CB
:100C7000494501D903260BE0D5F890008007F3D54C
:100C8000D5F89000216D20F440700843C5F890001D
:100C90001FB1A86D20F08050A8652078C00707D04C
:100CA000D5F88800616820F003000843C5F8880083
:100CB0002078800707D5D5F88800A16820F00C00BF
:100CC0000843C5F888002078400707D5D5F8880084
:100CD000E16820F030000843C5F88800207800075C
:100CE00007D5D5F88800216920F0C0000843C5F871
:100CF00088002078C00607D5D5F88800616920F4FF
:100D000040700843C5F888002078800607D5D5F8DC
:100D10008800A16920F440600843C5F88800207865
:100D2000400607D5D5F88800E16920F44050084313
:100D3000C5F888002078000607D5D5F88800216A14
:100D400020F440400843C5F888002088C00507D536
:100D5000D5F88800616A20F440300843C5F888005F
:100D60002068800307D5D5F89C00A16A20F0030015
:100D70000843C5F89C002088800507D5D5F8880071
:100D8000E16A20F440200843C5F888002088400527
:100D90000FD5D5F88800216B20F440100843C5F822
:100DA0008800206BB0F5801F03D1E86840F4801004
:100DB000E860208800050FD5D5F88800616B20F425
:100DC00040000843C5F88800606BB0F5800F03D180
:100DD000E86840F48010E8602088C0040FD5D5F89A
:100DE0008800A16B20F040700843C5F88800A06B14
:100DF000B0F1807F03D1E86840F48010E86020887B
:100E00004FF0006180040ED5D5F88800E26B20F029
:100E100040601043C5F88800E06B884203D1E86861
:100E200040F48010E860208840040ED5D5F8880092
:100E3000226C20F040601043C5F88800206C884286
:100E400003D1E86840F48010E860208800040FD5E2
:100E5000D5F88800616C20F040500843C5F8880040
:100E6000606CB0F1805F03D1E86840F48030E860E6
:100E70002068C0030FD5D5F88800A16C20F0404051
:100E80000843C5F88800A06CB0F1804F03D1E86832
:100E900040F48030E860206840030FD5D5F89C000E
:100EA000E16C20F440100843C5F89C00E06CB0F5FC
:100EB000001F03D1E86840F48010E8603046BDE8C8
:100EC000F883000000100240007000402DE9F04758
:100ED0000E4605004FF0000725D0DFF8AC81D8F8AA
:100EE000000000F00F00B0420CD2D8F8001021F042
:100EF0000F013143C8F80010D8F8000000F00F00CF
:100F0000B04210D12968614CC80741F2883A5AD0E2
:100F10006868DFF87C91032808D0022820682DD06B
:100F2000400500282CDB0120BDE8F0872068800107
:100F3000F9D5E06800F00302E068C0F30310401C3C
:100F4000032A19D0534A00BFB2FBF0F0E268C2F3A3
:100F500006225043E268C2F34162521C5200B0FBC9
:100F6000F2F0484517D9A06810F0F00F0CD08807B0
:100F700011D5A86840B10EE0474AE5E78003D0E705
:100F800000F0D6F8484506D9A06820F0F00040F0FF
:100F90008000A0608027A068696820F003000843F3
:100FA000A060FFF7F3FC814606E000BFFFF7EEFC10
:100FB000A0EB090151453AD8A068696800F00C001F
:100FC000B0EB810FF2D12868810714D5400703D513
:100FD000A06840F4E060A0602878000705D5A0680C
:100FE00020F4605040F4E060A060A068A96820F0A0
:100FF000F000084304E0802F03D1A06820F0F00047
:10100000A060D8F80010404601F00F01B14216D997
:10101000016821F00F0131430160FFF7B7FC07467B
:1010200007E000BFFFF7B2FCC11B514501D9032007
:101030007AE7D8F8000000F00F00B042F2D128782B
:10104000400705D5A068E96820F4E0600843A06087
:101050002878000706D5A068296920F4605040EA86
:10106000C100A06000F064F8A1680C4AC1F303114C
:10107000515C01F01F01C840094908600948006837
:10108000BDE8F047FFF7A0BC00200240001002407E
:1010900000B4C4040024F400001BB700722600084A
:1010A0000C000020000000200F2202600C4A936810
:1010B00003F003034360936803F0F00383609368D5
:1010C00003F4E063C36092684FF4E06303EAD20282
:1010D00002610448006800F00F00086070470000DB
:1010E0000010024000200240054806490068896857
:1010F000054AC1F30221515C01F01F01C84070474D
:101100000C00002000100240822600080548064915
:1011100000688968054AC1F3C221515C01F01F01D2
:10112000C84070470C0000200010024082260008D2
:10113000184910B58868C0F381021748012A0BD0FE
:101140008A68164BC2F38102022A06D08A68C2F36B
:101150008102032A03D0002010BD184610BDCA68C2
:1011600002F00304CA68C2F30312521C032C02D01B
:10117000B0FBF2F001E0B3FBF2F0CA68C968C2F359
:1011800006225043C1F34161491C4900B0FBF1F014
:1011900010BD0000001002400024F400001BB70046
:1011A0002DE9F84304007AD02078FA4DC00747D0E3
:1011B000A868E96800F00C0001F003010C2802D0D7
:1011C000082817D001E0032914D06068B0F5803FEB
:1011D00017D0B0F5A02F286817D020F480302860F1
:1011E000286820F4802028606068E0B1FFF7CEFB1B
:1011F000064614E02868800322D560680028D2D013
:101200001EE0286840F48030EDE740F4802028603C
:10121000F7E700BFFFF7BAFB801B642870D8286887
:101220008003F7D50CE0FFF7B1FB064605E000BFF1
:10123000FFF7ACFB801B6428F0D828688003F7D444
:10124000207880074CD5A868E96800F00C0001F010
:1012500003010C2802D004280DD001E002290AD095
:10126000E068002828682BD040F480702860FFF7E1
:101270008DFB064619E02868400502D5E068002885
:1012800091D06868217C20F0FE4040EA01606860EF
:10129000C1480068FFF798FB002800D120E076E104
:1012A000FFF774FB801B0228B8D828684005F7D5E3
:1012B0006868217C20F0FE4040EA016068600FE031
:1012C00020F480702860FFF761FB064605E000BF50
:1012D000FFF75CFB801B0228A0D828684005F7D4E4
:1012E0002078000729D560690028D5F8940013D02C
:1012F00040F00100C5F89400FFF748FB064606E001
:1013000090E000BFFFF742FB801B022886D8D5F88B
:1013100094008007F6D510E020F00100C5F8940095
:10132000FFF734FB064604E0FFF730FB801B022882
:1013300078D8D5F894008007F6D42078400761D596
:10134000A86D0026C00008D4A86D40F08050A865A4
:10135000A86D012600F08050009090480168C905F2
:1013600011D40168804641F480710160FFF70EFBE3
:10137000074604E0FFF70AFBC01B022852D8D8F842
:101380000000C005F6D5A068012815D00528D5F8BD
:10139000900016D020F00100C5F89000D5F890001C
:1013A00020F00400C5F89000A06841F28838B8B178
:1013B000FFF7ECFA07460EE0D5F8900040F0010088
:1013C000F0E740F00400C5F89000F5E7FFF7DEFA1B
:1013D000C11B414526D8D5F890008007F6D50CE012
:1013E000FFF7D4FA074604E0FFF7D0FAC11B4145E6
:1013F00018D8D5F890008007F6D41EB1A86D20F05B
:101400008050A8652078800629D5A0690028D5F8E5
:10141000980013D040F00100C5F89800FFF7B6FA25
:10142000064606E077E000BFFFF7B0FA801B02280F
:1014300077D8D5F898008007F6D510E020F00100A5
:10144000C5F89800FFF7A2FA064604E0FFF79EFAF7
:10145000801B022865D8D5F898008007F6D4E0698B
:10146000F0B3A968C1F38101032961D0022828687B
:1014700020F0807028600BD0E86820F00300E8605E
:10148000E86847490840E860FFF780FA04464BE007
:10149000FFF77CFA064604E0FFF778FA801B022883
:1014A0003FD828688001F7D4F4E908016FF00F02F3
:1014B00002EB01110843218A5204490802EB415111
:1014C000A26841EA02210843217D4FF07E4249088B
:1014D00002EB41610843217B40EAC160E96800E01A
:1014E00062E0304A11400843E860286840F08070AC
:1014F0002860E86840F08070E860FFF747FA04462B
:1015000005E000BFFFF742FA001B022809D828684F
:101510008001F7D548E004E0FFF738FA001B022805
:1015200002D90320BDE8F88328688001F4D43BE0A9
:101530000128F7D0E868226A00F00301914226D121
:10154000616A00F0F0020901103991421FD1A26ACC
:1015500000F4FE41B1EB022F19D194F82C2000F0D9
:101560007841B1EBC26F12D1218E00F4C00249085C
:101570004905A1F50011914209D194F8341000F009
:10158000C06049084906A1F1007181420CD00120D8
:10159000C8E700000010024000000020007000407A
:1015A000FFFFEEFE0C809F010020BBE770477047F5
:1015B0007047704770477047704710B5040003D0FC
:1015C00094F83D0010B107E0012010BD002084F820
:1015D0003C00204600F022F8022084F83D00211D46
:1015E000206800F005FD012084F8480084F83E00E2
:1015F00084F83F0084F8400084F8410084F84200F9
:1016000084F8430084F8440084F8450084F84600D8
:1016100084F8470084F83D00002010BD70470000AA
:1016200090F83D10012901D001207047022180F877
:101630003D100168CA6842F00102CA60006813499F
:10164000884214D0B0F1804F11D0114988420ED099
:10165000104988420BD01049884208D00F4988426F
:1016600005D00F49884202D00E49884207D18168CF
:101670000D4A1140062906D0B1F5803F03D001681C
:1016800041F001010160002070470000002C014082
:101690000004004000080040000C004000340140FD
:1016A000004001400050014007000100704770B544
:1016B0000446006801694FF00005C943890715D445
:1016C000C168C943890711D4E91E0161012020774F
:1016D000206880698007204602D0FFF7E7FF04E01A
:1016E00000F0E3F8204600F0E1F825772068016972
:1016F000C943490717D4C168C943490713D46FF0D8
:1017000004010161022020772068806910F4407F85
:10171000204602D0FFF7CAFF04E000F0C6F82046DA
:1017200000F0C4F8257720680169C943090716D479
:10173000C168C943090712D46FF008010161042090
:1017400020772068C0698007204602D0FFF7AEFFEF
:1017500004E000F0AAF8204600F0A8F825772068F9
:101760000169C943C90617D4C168C943C90613D45E
:101770006FF010010161082020772068C06910F423
:10178000407F204602D0FFF791FF04E000F08DF883
:10179000204600F08BF8257720680169C943C90706
:1017A00008D1C168C943C90704D1891E0161204617
:1017B00000F07EF820680169C943090609D4C168B0
:1017C000C943090605D46FF0800101612046FFF787
:1017D000EEFE20680169C943C90509D4C168C9433F
:1017E000090605D46FF4807101612046FFF7DEFE23
:1017F00020680169C943490609D4C168C94349063B
:1018000005D46FF040010161204600F05BF82068CC
:101810000169C943890609D4C168C943890605D449
:101820006FF0200101612046FFF7C2FE20680169C8
:10183000C943C90209D4C168C943C90205D46FF4B8
:10184000801101612046FFF7B5FE20680169C94398
:10185000890209D4C168C943890205D46FF4001113
:1018600001612046FFF7A5FE20680169C9434902CE
:1018700009D4C168C943490205D46FF480010161EC
:101880002046FFF798FE20680169C94309020BD47E
:10189000C168C943090207D46FF400010161204601
:1018A000BDE87040FFF788BE70BD7047704700000C
:1018B00000680349884201D1FFF76EB87047000005
:1018C00000140040704790F88010012918D00121C1
:1018D00080F880102421C0F8841050F8641B0A6836
:1018E0000B6823F001030B6022F00051002202601C
:1018F00050F8643C1960202101620277104670475D
:10190000022070477047704770B5044690F8800019
:1019100001281DD0012084F880002420C4F8840010
:1019200020680568026822F001020260206882686F
:1019300022F060620A438260204600F0C3FB206808
:1019400005602020C4F88400002084F8800070BD69
:10195000022070BD70B5044690F8800001281DD0AB
:10196000012084F880002420C4F8840020680568E1
:10197000026822F0010202602068826822F0604260
:101980000A438260204600F09DFB2068056020200D
:10199000C4F88400002084F8800070BD022070BD6F
:1019A00070477047704700002DE9F0410368044616
:1019B000D86919689A6840F60F0528424FF000056B
:1019C00009D186067ED501F0200602F080573E43FD
:1019D00078D0216F27E1A94EA94F16400F40374319
:1019E00070D0C70709D0CF0507D501271F62D4F8EB
:1019F0008C3043F00103C4F88C3083070AD5D30739
:101A000008D0276802233B62D4F88C3043F00403EB
:101A1000C4F88C3043070AD5D30708D027680423BD
:101A20003B62D4F88C3043F00203C4F88C300307D7
:101A30000CD501F02003334308D026680823336215
:101A4000D4F88C3043F00803C4F88C3003050BD570
:101A50004B0109D526684FF400633362D4F88C300B
:101A600043F02003C4F88C30D4F88C30002B3AD0EB
:101A7000800609D501F0200002F08051084303D010
:101A8000216F09B120468847D4F88C002168896805
:101A9000490602D410F0280F27D0204600F0D2FBD0
:101AA0002068806840061BD52068083050E8001F79
:101AB00021F0400140E80012002AF5D1E06F78B132
:101AC000704900E017E08163E06FFEF741FD0028F8
:101AD00009D0E06F816B00E02046BDE8F041084787
:101AE0002046FFF75FFFBDE8F0812046FFF75AFF71
:101AF000C4F88C50F7E7E76E2026012F7ED1C70689
:101B00007CD5CF067AD51020186220688068400600
:101B100042D5E16F086840680004000CE3D0B4F8D7
:101B20005C208242DFD9A4F85E0008680068800665
:101B30002BD4206850E8001F21F4807140E8001287
:101B4000002AF6D12068083050E8001F21F001017A
:101B500040E80012002AF5D12068083050E8001F44
:101B600021F0400140E80012002AF5D1C4F8886055
:101B7000E566216851E8000F20F0100041E80002FE
:101B8000002AF6D1E06FFEF7AEFCB4F85C00B4F8C2
:101B90005E10401A81B22CE0B4F85C00B4F85E101C
:101BA000401A81B2B4F85E0000289CD000299AD077
:101BB000226852E8000F20F4907042E80003002BE6
:101BC000F6D12E4BDB432068083050E8002F1A4036
:101BD00040E80027002FF6D1C4F88860E566256745
:101BE000226852E8000F20F0100042E80003002BAA
:101BF000F6D12046FFF786FE75E7FFE7C70209D555
:101C0000570207D54FF4801018622046BDE8F04116
:101C1000FFF7C7BE03060AD501F0800302F40002F5
:101C2000134304D0616F00297FF456AF5BE742068F
:101C300011D54A060FD52046016851E8002F22F041
:101C4000400241E80023002BF6D1C0F884604567CC
:101C500000F0DCF847E7020206D54A0004D520462A
:101C6000BDE8F041FFF79CBEC001C5D50029C3DA2D
:101C70002046BDE8F041FFF746BE0000010000101D
:101C8000200100043122000810B5040003D0D4F86C
:101C9000840010B107E0012010BD002084F880000E
:101CA000204600F027F82420C4F88400206801684A
:101CB00021F001010160204600F0EEFA0128EBD08E
:101CC000A06A10B1204600F01FFA2068416821F494
:101CD000904141602068816821F02A01816020687C
:101CE000016841F0010101602046BDE8104000F0AC
:101CF0006FBA00002DE9F0419CB00646142115A8EA
:101D0000FEF751FB54216846FEF74DFB3949306818
:101D1000394D002402274FF00708884225D10120C1
:101D2000CDE900046846FEF751FF08B1FEF7D9FB84
:101D3000286E40F480402866286E00F480401A9097
:101D4000E86C40F00400E864E86CCDE9167400F03B
:101D500004001A903020CDE91848159015A927489D
:101D6000FEF7F0FC1CB0BDE8F08125498842F9D1AE
:101D7000684600970294FEF729FF08B1FEF7B1FB11
:101D8000A86D40F40030A865A86D00F400301A90EA
:101D9000E86C40F00100E864E86CCDE9167400F0EE
:101DA00001001A900C20CDE91848159015A94FF0A4
:101DB0009040FEF7C7FC144D124828601A20C5E970
:101DC00001048020C5E903406C61AC61EC612846E8
:101DD0002C62FEF757FC08B1FEF783FBF567002283
:101DE00011462620AE62FEF759FE2620FEF748FE79
:101DF000B8E7000000380140001002400008004829
:101E00000044004080000240300100207047FEE79F
:101E10000D4808B5816C41F004018164816C01F0CA
:101E200004010091816C41F001018164806C002209
:101E300000F00100009011461120FEF72FFEBDE8D2
:101E400008401120FEF71CBE001002400D4808B5E6
:101E5000C16C41F02001C164C16C01F0200100910E
:101E6000C16C41F00101C164C16C01F0010100913C
:101E7000C16C41F00401C164C06C00F0040000902A
:101E800008BD000000100240184810B51649016056
:101E90004FF4E1314160002181600C22C160C0E952
:101EA00004128161C161016241628162FFF7ECFE4F
:101EB00008B1FEF716FB00210C48FFF74BFD08B1F7
:101EC000FEF70FFB00210948FFF71EFD08B1FEF7E2
:101ED00008FB0648FFF7F7FC002803D0BDE81040D8
:101EE000FEF7FFBA10BD00000038014010000020CE
:101EF0001A4810B5184901601949416000218160F4
:101F00000C22C160C0E904128161C16101624162B9
:101F1000302181624FF48051C16349000164FFF7B1
:101F2000B3FE08B1FEF7DDFA00210C48FFF712FD01
:101F300008B1FEF7D6FA00210848FFF7E5FC08B122
:101F4000FEF7CFFA0548FFF7BEFC002803D0BDE836
:101F50001040FEF7C6BA10BD00440040A0000020AB
:101F600000093D00FEE7FEE770477047704710B577
:101F700094B038216846FEF716FA14210EA8FEF731
:101F800012FA0020FEF7BCFD012000900004019031
:101F900002200324CDE907045021CDE90A100C905A
:101FA0000D9009946846FFF7FBF808B172B6FEE79A
:101FB0000F20CDE90E040020109011901290042102
:101FC0000EA8FEF783FF002801D072B6FEE714B01A
:101FD00010BD00000248016841F4700101607047C3
:101FE00088ED00E00148FFF762BB0000900100208F
:101FF0002DE9F04F02682A4B2A4E2B4FDFF8ACC078
:102000002B4C2C4D4FF0804B98420BD0584509D0AB
:10201000B04207D0B84205D0604503D0A04201D0FD
:10202000A84204D122F070084A6842EA0802DFF8A8
:102030008880DFF88890DFF888A0984211D0584552
:102040000FD0B0420DD0B8420BD0604509D0A042AD
:1020500007D0404505D0484503D0504501D0A8429F
:1020600003D122F44076CA6832434E6922F08002DE
:10207000324302608A68C2620A688262984209D06A
:10208000A04207D0404505D0484503D0504501D077
:10209000A84201D10969016301214161BDE8F08FC6
:1020A000002C01400004004000080040000C0040EB
:1020B0000034014000500140004001400044014014
:1020C0000048014030B5416EB9B10268916892682C
:1020D000C1F342610B4B520F9C5CE50003F1080415
:1020E000A25CB5FBF2F2A0F86A205A5C615CD200F7
:1020F000B2FBF1F1A0F8681030BD0121A0F86A1020
:10210000F8E700006226000890F82810C90706D0FA
:1021100001684A68C36A22F400321A434A6090F8A0
:102120002810890706D501684A68036B22F48032BB
:102130001A434A6090F82810490706D501684A6892
:10214000436B22F480221A434A6090F82810090752
:1021500006D501684A68836B22F400421A434A603C
:1021600090F82810C90606D501688A68C36B22F466
:1021700080521A438A6090F82810890606D50168B3
:102180008A68036C22F400521A438A6090F828107F
:10219000490611D501684A68436C22F480121A433B
:1021A0004A60416CB1F5801F06D101684A68836CB2
:1021B00022F4C0021A434A6090F82810090606D596
:1021C00001684A68C06C22F4002202434A607047EA
:1021D000F8B500260446C0F88C60FEF7D7FB05462C
:1021E000206800686FF07E47000708D52B46002264
:1021F0004FF400112046009700F09AF960B920686A
:10220000006840070AD52B4600224FF48001204683
:10221000009700F08DF908B10320F8BD2020C4F824
:102220008400C4F8880044F86C6F00202675F8BD5F
:1022300010B5806A0021A0F85E10A0F85610FFF7D4
:10224000B1FB10BD10B5026852E8001F21F4907177
:1022500042E80013002BF6D10E4B0268083252E818
:10226000001F194042E80014002CF6D1C16E01296C
:1022700008D1016851E8002F22F0100241E8002344
:10228000002BF6D12021C0F888100021C16601671B
:1022900010BD0000FEFFFFEF2DE9F041044601688C
:1022A00080682269E3691043626900251A4310437C
:1022B000DFF84CC20A68934B1A4002430A60206858
:1022C0004168E26821F44051114341602168A069EE
:1022D000614501D0226A10438A688B4B1A40024341
:1022E0008A602068C16A626A21F00F011143C162ED
:1022F0008649236886488B420DD1D0F8880010F0BB
:10230000030006D0012867D0022854D0032851D1F9
:1023100064E001204FE07F498B420BD1D0F8880068
:1023200010F00C0047D0042845D0082852D00C28C3
:1023300040D153E078498B420BD1D0F8880010F09F
:10234000300038D0102847D0202843D0302831D151
:1023500044E072498B420BD1D0F8880010F0C000E5
:1023600029D0402838D0802834D0C02822D135E068
:102370006B498B420ED1D0F8880010F440701AD00F
:10238000B0F5807F28D0B0F5007F23D0B0F5407F36
:1023900010D123E063450DD1D0F8880010F44060DF
:1023A00009D0B0F5806F17D0B0F5006F12D0B0F53E
:1023B000406F13D010205B4A5B4F00264FF4004162
:1023C000634539D160B102280DD004280DD008280A
:1023D00031D10EE00220EEE70420ECE70820EAE726
:1023E000FEF782FE03E0114603E0FEF7A1FE0100C6
:1023F0007BD0606A37F810206768B1FBF2F007EB1A
:102400004703834269D8B0EB073F66D800230846EC
:102410001946FDF751FF090241EA106102027808EE
:10242000101871413A460023FDF746FF3F4AA0F5D8
:102430004071914257D950E0E3694FF6EF788B42F3
:102440002BD1092849D2DFE800F005080D482548BE
:1024500048480E00FEF748FE01E0FEF757FE010077
:1024600001D142E01146606A37F81000B1FBF0F08C
:102470004100606801EB5001B1FBF0F1A1F11000E7
:1024800040452AD84FF6F07201EA0200C1F342013A
:10249000084328E0FEF74CFEE1E709281DD2DFE8FB
:1024A00000F005080D1C1E1C1C1C0E00FEF71CFE77
:1024B00001E0FEF72BFE010001D116E01146606A33
:1024C00037F81000B1FBF0F1606801EB5001B1FB8F
:1024D000F0F0A0F11001414504D9012505E0FEF717
:1024E00027FEE8E780B22168C8600120A4F86A00EE
:1024F00024F8680F2846A660E660BDE8F081000079
:1025000000800040F369FFCFFFF4FF110038014065
:10251000001002400044004000480040004C0040D1
:10252000005000400024F4004A260008FFFC0F0081
:102530002DE9F0479A4617460E4604464FF000092B
:102540004FF02008089D4AE0681C48D0FEF71EFAAC
:10255000A0EB0A00A8422AD84DB3206801684907B9
:102560003DD5C069C043000539D421684FF40060EF
:102570000862206850E8001F21F4D07140E8001282
:10258000002AF6D12068083050E8001F21F0010130
:1025900040E80012002AF5D144F8848FC4F8048082
:1025A000C4F8088004F8049C0320BDE8F087216883
:1025B00051E8000F20F4D07041E80002002AF6D163
:1025C0002068083050E8001F21F0010140E80012A7
:1025D000002AF5D144F8848FC4F80480E2E720682B
:1025E000C06936EA000004D00020B842ACD0002018
:1025F000DBE70120F9E700000148FFF7D5B900004B
:10260000A0000020FEE70907090E002804DB00F106
:10261000E02080F80014704700F00F0000F1E02087
:1026200080F8141D7047FEF7BFF9FFF7A0FCFFF715
:102630000DFCFFF7EDFBFFF75BFCFFF725FCFEE76A
:102640004FF04070E1EE100A7047010002000400F4
:10265000060008000A000C00100020004000800066
:102660000001010101030701000008040204080140
:102670000101000000000000000001020304060741
:10268000080900000000010203040000AC26000855
:10269000000000201000000014020008BC26000802
:1026A0001000002030080000300200081000000078
:0C26B00001000000000000000024F40005
:04000005080001D915
:00000001FF
