:020000040800F2
:10000000F00400209D010008E7110008E510000839
:10001000E5110008A902000875140008000000009E
:10002000000000000000000000000000EB110008CC
:10003000AB02000800000000E9110008ED11000803
:10004000B7010008B7010008B7010008B7010008B0
:10005000B7010008B7010008B7010008B7010008A0
:10006000B7010008B7010008B7010008B701000890
:10007000B7010008B7010008B7010008B701000880
:10008000B7010008B7010008B7010008B701000870
:10009000B7010008B7010008B7010008B701000860
:1000A000B7010008B7010008B7010008B701000850
:1000B000B7010008B7010008B7010008B701000840
:1000C000B7010008B7010008B7010008B701000830
:1000D000B7010008B7010008B7010008B701000820
:1000E000B7010008B7010008B7010008B701000810
:1000F000B7010008B7010008B7010008B701000800
:10010000B7010008B7010008B7010008B7010008EF
:10011000B7010008B701000895120008B7010008F0
:10012000B7010008B7010008B7010008B7010008CF
:10013000B70100080000000000000000B70100083F
:10014000B7010008B7010008B7010008B7010008AF
:10015000B7010008B7010008B7010008B70100089F
:10016000B7010008B7010008B7010008B70100088F
:10017000B7010008B70100080000000000000000FF
:10018000B7010008B7010008DFF80CD000F07AF8DA
:1001900000480047B5140008F004002006488047D6
:1001A00006480047FEE7FEE7FEE7FEE7FEE7FEE75C
:1001B000FEE7FEE7FEE7FEE785120008890100087A
:1001C0002DE9F05F0546002092469B46884606468C
:1001D000814640241BE0284641464746224600F01F
:1001E00041F853465A46C01A914110D31146184659
:1001F000224600F028F82D1A67EB01084F462246E8
:100200000120002100F01FF817EB00094E41201ECD
:10021000A4F10104DFDC484631462A464346BDE8E6
:10022000F09FD2B201E000F8012B491EFBD27047CB
:100230000022F6E710B513460A4604461946FFF7B2
:10024000F0FF204610BD202A04DB203A00FA02F11C
:10025000002070479140C2F1200320FA03F31943B4
:1002600090407047202A04DB203A21FA02F0002156
:10027000704721FA02F3D040C2F1200291400843B6
:1002800019467047064C074D06E0E06840F0010350
:1002900094E8070098471034AC42F6D3FFF778FF94
:1002A000E814000808150008FEE7704772B6FEE77C
:1002B00070B5040003D094F8200010B104E00120D0
:1002C00070BD204600F082F82068016841F001010D
:1002D000016000F0E1F90546052604E000F0DCF9D4
:1002E000401B0A2811D820684068C007F6D0206853
:1002F000016821F00201016000F0CEF905460BE033
:1003000000F0CAF9401B0A2806D9606A40F40030A0
:10031000606284F82060D2E7206840688007EFD4EC
:10032000207E0128206801683DD021F08001016015
:10033000607E01282068016838D021F0400101600A
:10034000A07E01282068016833D021F020010160DF
:10035000E07E0128206801682ED041F01001016084
:10036000207F01282068016829D021F00801016060
:10037000607F01282068016824D021F00401016019
:10038000D4E902010843D4E9041211430843616827
:10039000491E08432168C86100206062012084F87A
:1003A0002000002070BD41F08001C0E741F0400115
:1003B000C5E741F02001CAE721F01001CFE741F085
:1003C0000801D4E741F00401D9E70000F0B587B097
:1003D000044614216846FFF72BFF2E4B2E48DFF80A
:1003E000B0E01968D4F800C02B4A0225032609277B
:1003F00010300024491CF44519D11960012907D196
:10040000016841F000710160006800F00070059023
:10041000106840F0010010601068694600F00100AB
:1004200005904FF4C050CDE900051C4828E0DFF8E6
:1004300070E0F44529D1D0F800C04CF0806CC0F8D1
:1004400000C0D0F800C001290CF0806CCDF814C0B9
:10045000196007D1016841F000710160006800F087
:1004600000700590106840F0020010601068694646
:1004700000F0020005904FF44050CDE90005094816
:1004800002AB83E8D00000F00FF807B0F0BD000029
:1004900000640040000000203038024000000240AC
:1004A00000680040000402402DE9F84FDFF8BCA1CD
:1004B0000022012503264FF00F090AF1040BAAF1CF
:1004C000040E00BF0B6805FA02F42340A34270D16A
:1004D0000F7907F00307012F01D0022F16D187688B
:1004E0004FEA420806FA08FC27EA0C07D1F80CC0CC
:1004F0000CFA08FC4CEA070CC0F808C04768A74390
:100500000C79C4F3001494403C4344600C79E443F8
:10051000A4070AD0C4684FEA420C06FA0CF7BC43A1
:100520008F6807FA0CF72743C7600C7904F00304BF
:10053000022C12D1D40800EB840CDCF820405707C1
:10054000FF0E09FA07F824EA0804D1F8108008FA27
:1005500007F848EA0408CCF8208004684FEA420C07
:1005600006FA0CF7BC430F7907F0030707FA0CF7FC
:10057000274307604C6814F4403F70D03C4C276818
:1005800047F480472760246822F0030704F480447E
:100590000094384C07EB040CDCF8084897074FEA46
:1005A000177809FA08F7BC43334FB84202D1002745
:1005B00024E054E0314FB84201D101271EE0304F12
:1005C000B84201D1022719E02E4FB84201D10327CA
:1005D00014E02D4FB84201D104270FE02B4FB84251
:1005E00001D105270AE02A4FB84201D1062705E0CC
:1005F000284FB84201D1072700E0082707FA08F77B
:100600002743CCF80878DAF800405746D1F804C000
:100610009C435FEACC2C00D51C433C60DBF80040D7
:100620005F46D1F804C09C435FEA8C2C00D51C4384
:100630003C60DEF800407746D1F804C09C435FEA96
:100640008C3C00D51C433C60084F083F3C68D1F807
:1006500004C09C435FEACC3C00D51C433C60521C68
:10066000102AFFF42FAFBDE8F88F0000083C0140CE
:1006700044380240003001400000024000040240C3
:1006800000080240000C024000100240001402402A
:1006900000180240001C02400148806870470000BA
:1006A000040000200248816802781144816070478C
:1006B000040000200B4810B5016841F4007101608E
:1006C000016841F480610160016841F4807101605A
:1006D000032000F09BF80F2000F006F800F050F81F
:1006E000002010BD003C024030B505461F4887B0D1
:1006F0000024016841F010010160006806A900F0C3
:100700001000009001A800F02DF90498A8B100F0A5
:1007100049F940001649174AB0FBF1F11648491E45
:10072000026040F2E732C0E90324C0E901148461A9
:1007300000F042FB040003D015E000F033F9E9E7D4
:100740000D4800F067FB04000DD1362000F030F8B2
:10075000102D07D200222946362000F037F807482E
:10076000056000E0012407B0204630BD403802405B
:1007700040420F0000100040A800002008000020A8
:100780000A4808B5016841F480410160006800F43E
:10079000804000900548001F016841F080510160D1
:1007A000006800F08050009008BD0000443802400E
:1007B000002809DB00F01F02012191404009800060
:1007C00000F1E020C0F8001170470000F0B40E4BBB
:1007D0001B680C46C3F30223C3F10705042D00D99F
:1007E0000425191D072901D2002300E0DB1E012684
:1007F00006FA05F1491E214099409E40761E16409A
:100800003143F0BC00F037BE0CED00E0064900F0CB
:10081000070208684FF6FF03184040EA0220034A27
:1008200010430860704700000CED00E00000FA057E
:100830002DE9F0470E46050065D0DFF81481D8F8A1
:100840000000F7B200F00700B04207D288F800704D
:10085000D8F8000000F00700B04254D128683D4CA1
:10086000810712D5400703D5206840F4E05020608E
:100870002878000703D5206840F460402060206895
:10088000A96820F0F000084320602878C0072DD028
:10089000304968680839012812D0022813D003288B
:1008A00011D00968890700292DDA216821F0030198
:1008B00001432160FFF7F0FE814641F2883A0EE0E5
:1008C00009688903EFE709688901ECE7FFF7E4FEAF
:1008D000A0EB0901514502D90320BDE8F08720684B
:1008E000696800F00C00B0EB810FEFD1D8F8001070
:1008F000404601F00701B14207D90770006800F0D7
:100900000700B04201D00120E7E72878400705D56D
:100910002068E96820F4E050084320602878000748
:1009200006D52068296920F4604040EAC1002060B3
:1009300000F058F82168084AC1F30311515CC8401F
:100940000649086006480068FFF7CEFE0020C4E7AD
:10095000003C024008380240CE140008100000207D
:10096000080000200F2202600C4A136803F0030302
:100970004360136803F0F0038360136803F4E053EB
:10098000C36012684FF4E05303EAD20202610448E4
:10099000006800F007000860704700000838024057
:1009A000003C02400448054900680968044AC1F354
:1009B0008221515CC8407047100000200838024076
:1009C000DE1400080448054900680968044AC1F3B8
:1009D0004231515CC8407047100000200838024086
:1009E000DE140008154810B5006810F00C02144819
:1009F00013D01449042A0FD0082A0ED10F4C241FFB
:100A00002268236802F03F025B0207D52068C0F32A
:100A10008810A0FB010106E0084610BD2168C1F363
:100A20008811A1FB00010023FFF7CAFB2168C1F375
:100A30000141491C4900B0FBF1F010BD08380240EB
:100A40000024F40040787D012DE9F84F04006ED0B9
:100A50002078DFF84C93C007A9F104054AD009F1CA
:100A600004000168C1F38101012908D00068C0F3C6
:100A7000810002280AD1D9F80000400206D5286872
:100A8000800337D560680028E1D033E06068B0F5B6
:100A9000803F10D0B0F5A02F286810D020F480300F
:100AA0002860286820F4802028606068A8B1FFF7DB
:100AB000F3FD06460DE0286840F48030F4E740F48A
:100AC00080202860F7E700BFFFF7E6FD801B642861
:100AD00073D828688003F7D50CE0FFF7DDFD0646E4
:100AE00005E000BFFFF7D8FD801B6428F0D8286818
:100AF0008003F7D42078DFF8AC8280074FF0000A3B
:100B00003ED5A748001D016811F00C0F08D0006801
:100B1000C0F3810002280BD1D9F80000400207D4AD
:100B20002868800716D5E068012800D112E033E17B
:100B3000E068B8B10120C8F80000FFF7ADFD064637
:100B400005E000BFFFF7A8FD801B0228C0D8286879
:100B50008007F7D52868216920F0F80040EAC10035
:100B600028600DE0C8F800A0FFF796FD064604E0F7
:100B7000FFF792FD801B02281FD828688007F7D452
:100B80002078000722D5864F87486169703771B198
:100B900001210160FFF780FD064604E0FFF77CFDC0
:100BA000801B022809D838688007F7D50EE0C0F806
:100BB00000A0FFF771FD064605E082E0FFF76CFD3F
:100BC000801B02287DD838688007F7D4207840073A
:100BD00068D5DFF8CCB100270BF13C0BDBF8000047
:100BE000C0000BD4DBF8001041F08051CBF80010AE
:100BF000DBF80000012700F0805000906B4E306859
:100C0000C00510D4306840F480703060FFF744FDB8
:100C1000009005E0FFF740FD0099401A022850D8E7
:100C20003068C005F6D55E4EA0686C3601280FD03E
:100C30000528306810D020F001003060306820F0C6
:100C400004003060A068B8B1FFF726FD00900FE007
:100C5000306840F00100F4E740F004003060F7E74E
:100C6000FFF71AFD0099411A41F28830814266D897
:100C700030688007F4D50EE0FFF70EFD009007E026
:100C8000FFF70AFD0099411A41F28830814256D897
:100C900030688007F4D42FB1DBF8001021F08051C8
:100CA000CBF80010A069C8B33D49091D0968C1F31C
:100CB000810102294AD00228504607D0C8F86000B6
:100CC00000E03CE0FFF7E8FC04463BE04746C8F89C
:100CD0006000FFF7E1FC064605E000BFFFF7DCFC23
:100CE000801B02282BD828688001F7D4D4E907019B
:100CF0000843A16A2E4A490802EB0141626A41EAAF
:100D00008211084394F82C1040EA0161C9F80010E0
:100D100001203866FFF7C0FC044606E03EE000BF55
:100D2000FFF7BAFC001B022809D828688001F7D514
:100D300034E000BFFFF7B0FC001B022802D90320FB
:100D4000BDE8F88F28688001F4D427E00128F7D0A7
:100D5000D9F80000E26900F4800191421CD1226AB6
:100D600000F03F01914217D147F6C071626A01401D
:100D7000B1EB821F10D1A26A4FF0FF3300F4403173
:100D800003EB5202B1EB024F06D194F82C1000F0A5
:100D90007060B0EB016F01D00120D1E70020CFE7F8
:100DA0000438024000004742800E47420070004075
:100DB0000000FFFF7047704710B5040003D094F89F
:100DC0003D0010B107E0012010BD002084F83C0078
:100DD000204600F01EF8022084F83D00211D206806
:100DE00000F05EFA012084F8460084F83E0084F8A2
:100DF0003F0084F8400084F8410084F8420084F801
:100E0000430084F8440084F8450084F83D00002045
:100E100010BD704790F83D10012901D001207047A6
:100E2000022180F83D100168CA6842F00102CA60E0
:100E300000681149884214D0B0F1804F11D00F4999
:100E400088420ED00E4988420BD00E49884208D005
:100E50000D49884205D00D49884202D00C4988428C
:100E600004D1816801F00701062903D0016841F02F
:100E700001010160002070470000014000040040B3
:100E800000080040000C0040000401400040014008
:100E900000180040704770B50446006801694FF0C3
:100EA0000005C943890715D4C168C943890711D40E
:100EB000E91E0161012020772068806980072046B3
:100EC00002D0FFF7E7FF04E000F098F8204600F0BA
:100ED00096F8257720680169C943490717D4C16886
:100EE000C943490713D46FF0040101610220207740
:100EF0002068806910F4407F204602D0FFF7CAFFC7
:100F000004E000F07BF8204600F079F825772068AF
:100F10000169C943090716D4C168C943090712D436
:100F20006FF008010161042020772068C069800704
:100F3000204602D0FFF7AEFF04E000F05FF8204645
:100F400000F05DF8257720680169C943C90617D408
:100F5000C168C943C90613D46FF0100101610820AC
:100F600020772068C06910F4407F204602D0FFF748
:100F700091FF04E000F042F8204600F040F82577A9
:100F800020680169C943C90708D1C168C943C907B5
:100F900004D1891E0161204600F032F82068016901
:100FA000C943090609D4C168C943090605D46FF0CD
:100FB000800101612046FFF7FDFE20680169C943F9
:100FC000490609D4C168C943490605D46FF04001F8
:100FD0000161204600F01EF820680169C9438906B6
:100FE0000BD4C168C943890607D46FF020010161A1
:100FF0002046BDE87040FFF7DEBE70BD7047704709
:1010000000680349884201D1FFF74CBB70470000DC
:1010100000100040704770B5040004D094F83D0003
:10102000002510B106E0012070BD84F83C50204638
:1010300000F022F8242084F83D002068C16821F4E3
:101040000051C160204600F08FF92068016921F449
:10105000904101612068416921F02A0141612068C5
:10106000C16841F40051C1602564202084F83D002E
:1010700084F83E00002070BD10B586B004461421EF
:101080006846FFF7D5F814492068884221D11348F3
:101090000021026842F010020260006800F01000B7
:1010A00005900E481438026842F0010202600068A0
:1010B00000F0010005904FF4C06000900220CDE9DF
:1010C0000101032003900720049069460448FFF7BC
:1010D000EBF906B010BD000000100140443802409A
:1010E00000000240FEE700000F4810B50D49016006
:1010F0000621416000214FF400328160C0E90312F3
:10110000120142610176012242768276C27601772F
:101110004177FFF7CDF8002803D0BDE81040FFF776
:10112000C5B810BD00640040140000200F4810B581
:101130000D4901601021416000214FF400328160AF
:10114000C0E90312120142610176012242768276E1
:10115000C27601774177FFF7ABF8002803D0BDE8EE
:101160001040FFF7A3B810BD006800403C0000200D
:101170000D4808B5016841F080010160016801F087
:1011800080010091016841F002010160016801F0F5
:1011900002010091016841F001010160006800F066
:1011A0000100009008BD0000303802400C4810B526
:1011B0000A4901604FF4E1314160002181600C2255
:1011C000C160C0E904128161C161FFF724FF0028FA
:1011D00003D0BDE81040FFF769B810BD0010014012
:1011E00064000020FEE7FEE770477047704700008C
:1011F00030B593B030216846FFF71AF814210CA8D7
:10120000FFF716F81D480025016841F08051016084
:10121000006800F0805011901948016841F4804145
:1012200001600068022400F48040119001200390C6
:1012300010200490009406940820CDE90750A820BF
:10124000CDE9090404200B906846FFF7FDFB08B1C7
:1012500072B6FEE70CA90F2081E831004FF4A050D0
:101260000F904FF48050109005210CA8FFF7E0FA82
:10127000002801D072B6FEE713B030BD40380240FE
:10128000007000400248016841F47001016070473D
:1012900088ED00E00148FFF7FEBD0000A800002037
:1012A000F0B50268254C264D264E274F274B4FF0B0
:1012B000804CA04209D0604507D0A84205D0B0427A
:1012C00003D0B84201D0984204D122F0700E4A688F
:1012D00042EA0E02A0421BD0604519D0A84217D0A6
:1012E000B04215D0B84213D0984211D0184DA84240
:1012F0000ED0184DA8420BD0174DA84208D0174D5C
:10130000A84205D0164DA84202D0164DA84203D1DE
:1013100022F44075CA682A434D6922F080022A43AC
:1013200002608A68C2620A688262A04201D0984262
:1013300001D10969016301214161F0BD0000014053
:101340000004004000080040000C00400004014080
:1013500000400140004401400048014000180040A6
:10136000001C00400020004070B504460068016980
:10137000E26821F44051114301612169A068E269EA
:1013800008436169114308432168CA6849F20C6344
:101390009A430243CA6020684169A26921F44071FE
:1013A0001143416131492068884202D03049884266
:1013B00002D1FFF707FB01E0FFF7F4FAE26900232F
:1013C000192164253226B2F5004F626828D0A0FBAF
:1013D0000101930F9200FEF7F3FE0146B0FBF5F01A
:1013E0006FF01802504301EB800006EB0010B0FBD9
:1013F000F5F000F0F002B1FBF5F002EB0012B1FBEA
:10140000F5F06FF01803584301EB800006EB001075
:10141000B0FBF5F000F00F0021681044886070BD4B
:10142000A0FB010192185B41FEF7CAFE0146B0FB2A
:10143000F5F00201B1FBF5F06FF01803584301EB32
:10144000800006EBC000B0FBF5F000F0F80002EB06
:101450004002B1FBF5F0584301EB800006EBC00001
:10146000B0FBF5F000F00700D6E7000000100140E7
:1014700000140140FEE70907090E002804DB00F113
:10148000E02080F80014704700F00F0000F1E02029
:1014900080F8141D704702E008C8121F08C1002A16
:1014A000FAD170477047002001E001C1121F002AE5
:1014B000FBD17047FFF7FEF8FFF79AFEFFF758FEE3
:1014C000FFF712FEFFF732FEFFF770FEFEE70000A7
:1014D00000000000000001020304060708090000E4
:1014E00000000102030400000815000800000020AD
:1014F00014000000961400081C15000814000020B9
:10150000DC040000A6140008000000000100000038
:0C15100010000000000000000024F400A7
:040000050800018965
:00000001FF
