:020000040800F2
:10000000B0160020790200085B4B00086B32000834
:10001000594B0008BD060008515A000800000000B6
:1000200000000000000000000000000091500008E7
:100030001309000800000000054E00086551000883
:10004000930200089302000893020008930200083C
:10005000930200089302000893020008930200082C
:100060009302000893020008930200086108000848
:100070006508000893020008930200089302000834
:100080009302000800000000930200089302000899
:1000900093020008930200089302000893020008EC
:1000A00093020008595200089302000893020008C6
:1000B00093020008930200089302000893020008CC
:1000C00093020008930200089302000893020008BC
:1000D0009302000893020008DD590008930200080B
:1000E0001509000893020008930200089302000813
:1000F0009302000893020008930200080000000029
:1001000000000000930200080000000093020008B5
:1001100093020008000000005D520008BD52000874
:10012000930200089302000893020008930200085B
:100130009302000800000000000000009302000885
:100140009302000893020008000000000000000075
:10015000000000000000000000000000000000009F
:1001600000000000000000000000000093020008F2
:1001700093020008000000000000000000000000E2
:1001800000000000930200080000000000000000D2
:10019000000000000000000000000000000000005F
:1001A0000000000000000000930200089302000815
:1001B0009302000893020008930200080000000068
:1001C0000000000093020008000000000000000092
:1001D000930200089302000800F002F800F03CF8D7
:1001E0000AA090E8000C82448344AAF10107DA4592
:1001F00001D100F031F8AFF2090EBAE80F0013F0A8
:10020000010F18BFFB1A43F001031847C47E00001A
:10021000E47E0000103A24BF78C878C1FAD85207AB
:1002200024BF30C830C144BF04680C607047000070
:100230000023002400250026103A28BF78C1FBD8EF
:10024000520728BF30C148BF0B6070471FB507F089
:10025000E8FD1FBD10B510BD00F0FAF91146FFF71B
:10026000F5FF06F0C1FE00F018FA03B4FFF7F2FF45
:1002700003BC00F01DFA0000094880470948004708
:10028000FEE7FEE7FEE7FEE7FEE7FEE7FEE7FEE746
:10029000FEE7FEE704480549054A064B70470000A3
:1002A00049520008D9010008B0100020B016002003
:1002B000B0120020B012002053EA020C00F0698056
:1002C0002DE9F04B4FF00006002B1FBFB3FA83F56A
:1002D00003FA05F424FA05F65E4012BF1643B2FA9B
:1002E00082F502FA05F4C5F120051EBF22FA05FCCD
:1002F00044EA0C04203556EA044C4FEA144418BF73
:10030000641C4FF000084FF00009904271EB030CA1
:1003100039D3002919BFB1FA81F701FA07F6B0FA0B
:1003200080F700FA07F6C7F120071EBF20FA07FC86
:1003300046EA0C062037B6FBF4FCA7EB0507103F96
:1003400007F01F0BCBF120060CFA0BFB2CFA06F67C
:1003500044BFB3460026202FA4BF5E464FF0000BDB
:100360005BEA060C08BF4FF0010B19EB0B09ABFB66
:10037000027C48EB0608C01B06FB02CC0BFB03CC3F
:1003800071EB0C01C1E70B46024641464846BDE809
:10039000F08B13B54FF000004FF00001AFF3008079
:1003A000BDE81C407047431A28BF9A4240F2C680FD
:1003B000032A1044114440F2268010F0030F1EBFA0
:1003C00011F8013D521E00F8013D10F0030F7FF4BB
:1003D000F6AF11F0030300F00981083AC0F00B807A
:1003E00051F8043D083A51F804CD40F8043D40F876
:1003F00004CDFFF7F3BF121D5CBF51F8043D40F878
:10040000043DAFF30080D20724BF11F8013D11F87D
:1004100001CD48BF11F8012C24BF00F8013D00F8C0
:1004200001CD48BF00F8012C704710B5203AC0F04C
:100430000B80B1E81850203AA0E81850B1E81850E5
:10044000A0E81850BFF4F5AF5FEA027C24BFB1E822
:100450001850A0E8185044BF18C918C0BDE8104093
:100460005FEA827C24BF51F8043B40F8043B08BF9C
:100470007047D20728BF31F8023B48BF11F8012B63
:1004800028BF20F8023B48BF00F8012B70474FF00F
:1004900000020429C0F0128010F0030C00F01B8051
:1004A000CCF1040CBCF1020F18BF00F8012BA8BF5F
:1004B00020F8022BA1EB0C0100F00DB85FEAC17C23
:1004C00024BF00F8012B00F8012B48BF00F8012BD6
:1004D00070474FF0000200B5134694469646203907
:1004E00022BFA0E80C50A0E80C50B1F12001BFF4ED
:1004F000F7AF090728BFA0E80C5048BF0CC05DF853
:1005000004EB890028BF40F8042B08BF704748BFA0
:1005100020F8022B11F0804F18BF00F8012B704714
:1005200070477047704710B500F08AF8006810BD3A
:1005300010B5044600F084F8046010BD032A40F2B0
:10054000308010F0030C00F0158011F8013BBCF175
:10055000020F624498BF11F801CB00F8013B38BF8D
:1005600011F8013BA2F1040298BF00F801CB38BF9B
:1005700000F8013B11F003033FF457AF083AC0F015
:10058000088051F8043B083A51F804CBA0E8081061
:10059000F5E7121D5CBF51F8043B40F8043BAFF394
:1005A0000080D20724BF11F8013B11F801CB48BFEE
:1005B00011F8012B24BF00F8013B00F801CB48BF24
:1005C00000F8012B7047431A28BF9A427FF62DAFDF
:1005D000104410F0030F11441EBF11F8013D521ECC
:1005E00000F8013D10F0030F7FF4F6AF103AC0F0B1
:1005F0000A8010B531E91850103A20E91850BFF4BC
:10060000F9AFBDE81040530724BF31E9081020E9D5
:10061000081044BF51F8043D40F8043D12F0030FA8
:1006200008BF7047D20728BF31F8023D48BF11F814
:10063000012C28BF20F8023D48BF00F8012C70476C
:10064000004870474C100020004870474C100020B4
:100650007546FFF7F9FFAE4605006946534620F0A0
:100660000700854618B020B5FFF714FEBDE820400E
:100670004FF000064FF000074FF000084FF0000B5E
:1006800021F00701AC46ACE8C009ACE8C009ACE811
:10069000C009ACE8C0098D46704710B50446AFF3F9
:1006A00000802046BDE81040FFF7DFBD7047000026
:1006B00001491820ABBEFEE726000200FEE700005D
:1006C00070B549480022114690ED8A0A1046DFEDC8
:1006D000470A9FED471AB5EEC00AF1EE10FA0ADBA1
:1006E00010EE103A434CA34205DAC0EE201AFF2167
:1006F00021EE810A40E010EE103A3E4CF7EE001A6F
:10070000644223444FF40004A3420DD230EE602A29
:1007100082EE200A31EEC00A20EE010ABCEEC00AC9
:1007200010EE100AC1B214E010EE103A324D9FEDF7
:10073000332A2B444FF48805AB420CD870EE421A92
:1007400081EEA00A20EE010ABCEEC00A10EE100AEB
:10075000C2B2FF2042E010EE103A294E3344AB42C1
:1007600010D8FF229FED272A30EE022A82EE200ABF
:1007700031EEC00A20EE010ABCEEC00A10EE100AEB
:10078000C0B22BE010EE103A1F4D2B44A3420CD206
:1007900070EE021AFF2281EEA00A20EE010ABCEEE2
:1007A000C00A10EE101AC9B218E010EE103A164C3A
:1007B000E443A34212D2B5EEC00AF1EE10FA0DD214
:1007C00030EE202A82EE200A31EEC00A20EE010A25
:1007D000BCEEC00A10EE101ACAB2FF210B4B1A7001
:1007E0005970987070BD00005C09002000007042D4
:1007F00000007F4300007042000010BD0000F04286
:100800000000103D00003443FFFF8F3D72000020C8
:1008100070B5124D104C28782058C0F3800040B1BC
:100820002068C0F3800020B104206060002006F042
:1008300053FB28782058C0F3400000280BD02068D4
:10084000C0F34000002806D002206060BDE8704080
:10085000012006F041BB70BD00000240687F000827
:10086000FFF7D6BF014800F011BF000024020020AE
:100870000D4902688A4201D20C4901E00B4920313E
:10088000D2B21423083AB2FBF3F2436C02F01F0217
:1008900023F003031944816404498031C1640121B8
:1008A00091400165704700000804024000080240C2
:1008B0000179074A02EB81024265054A4432491E2A
:1008C000826501F01F0201219140C165704700005F
:1008D000FC08024030B5D0E913456560446D14B1A1
:1008E000D0E91645656090F8444004F01F050124E6
:1008F000AC40056C6C60046863608368102B03680F
:1009000003D099600068C26030BD9A600068C16021
:1009100030BD704705494FF480600B6830EA030230
:1009200002D1086003F038BB704700001404014096
:1009300072B6FEE710B588B000240220CDE902406F
:100940000120CDE90404019401A91648069401F0A0
:1009500036F808B1FFF7ECFF0222002311461148D8
:10096000009401F05AF808B1FFF7E2FF0D4801F0DA
:10097000A9F908B1FFF7DCFF00220121094800F0C6
:1009800089FF08B1FFF7D4FF07484FF40021446006
:10099000C0E90241046144618461C461046208B039
:1009A00010BD00008000002038050020F0B5D1E91E
:1009B00001650C692C430D68BEB145F080452C43A0
:1009C000D1E90665354391F820704E69406D46EADD
:1009D00007663543CE6803EBC303354300EBC30022
:1009E0000023E0E802450A4C0AE044EA8544E7E7D0
:1009F000D618D55CD6F801601B1D45EA062520C037
:100A0000CD6804EB15452D789D42F1D8F0BD00006E
:100A1000507E00081CB53449344891ED000AA0F519
:100A2000806480ED880A91ED011AA0F2244380EDE4
:100A3000891AD1ED020AC0ED8A0AA18801F5407237
:100A40001A6005291ED2DFE801F0031027344300A5
:100A50008DED001A90ED8C0A08228DED010A694691
:100A60002348FFF7A0FC01200BE0CDED000A90ED3C
:100A70008D0A08228DED010A69461D48FFF793FC97
:100A80000220A0801A4A1B491B4800F073FF00286F
:100A900001D0FFF74DFF1CBD8DED000A90ED8B0AD4
:100AA00008228DED010A69461148FFF77CFC0320FE
:100AB000E7E794ED020A08228DED000A94ED030A9F
:100AC00069468DED010A0A48FFF76DFC0420D8E75E
:100AD00094ED040A08228DED000A69460448FFF7E8
:100AE00062FC0020CDE70000B00400205C0900207B
:100AF00064000020380500208000002010B5044C60
:100B00002088642803D304F06FFF0020208010BDEC
:100B10000600002090ED041A90ED050AD0ED060ABB
:100B2000D0ED071A21EE013A21EE002A61EE202ACB
:100B300061EE215AB6EE001A60EE203A33EE411A09
:100B4000D0ED086A20EE214A90ED096AB0EE413AF4
:100B500060EEA14A00EE003A90ED0A5A23EE260A12
:100B600033EEE53A73EEA53AF0EE415A01EEA11AE2
:100B700003EE060A34EE223A74EE622A40EEA05AE0
:100B800074EEC20A63EEA63A62EEA62A34EE822A18
:100B900003EE050A45EE863AB0EE003A42EE062A2A
:100BA00020EE030A40EE853A41EE052AB7EE001A20
:100BB00063EE830A12EE831A7047D0ED050AD0ED7A
:100BC000071A90ED041AD0ED062A20EEA10AB0EE25
:100BD000002A203001EE620A62EEA12A41EE202AAC
:100BE00020EE020A62EE820AF6EE002A51EE012A97
:100BF00041EEA12A22EE821AD0EC031A31EEC00A8D
:100C000072EE600A32EEC11A7047103090EC040A9E
:100C1000704700001FB5064B04460FCB8DE80F0050
:100C20006946204600F092F8204600F003F81FBD08
:100C3000907E0008114A10B51ECA00F1100CB2EEE9
:100C4000040A8CE81E0000210162416201228162D7
:100C500080F82C2080ED0C0A8163C163016441643B
:100C60008164C16480F85010416580F8581080F8A4
:100C70005910C16580F8601010BD0000A07E00080A
:100C800070B505462DED048BB6EE008AB0EE409AA5
:100C900090ED061AF0EE480A90ED070A41EE410A7F
:100CA000D0ED041A40EE400A21EE800AD0ED051A7C
:100CB00001EE810A04F0A4FFF0EE408AB0EE490A8A
:100CC00000F0CAFA38EEC00A002460EE088AB0EEDE
:100CD000680A05F0BDF8B0EE408AB0EE680A05F08B
:100CE00003FD05F11000B1EE401AD0EC041AB0EE8D
:100CF000480A00EE904A60EE213A20EE024A60EE89
:100D0000224A20EE030A40EEC23A00EE904A00EE7C
:100D1000A20A40EEC34A00EEA14A40EEE23A00EEDB
:100D2000C20A40EEA14A00EE834A41EE433A01EE88
:100D3000210A41EE024A01EE624A85ED070A1035AA
:100D4000C5EC033ABDEC048B70BD000070B50D46D8
:100D50002DED028BF6EE008A91ED000A9FED268ABA
:100D600080ED000A91ED010A0446B5EEC00AF1EEED
:100D700010FA28D0E86830B300F06EFA05F0B4FC41
:100D800020EE280AF0EE000A05F00AF984ED010AC7
:100D900095ED020AB5EEC00AF1EE10FA16D0E86839
:100DA000A0B100F059FA05F09FFC20EE280AF0EE01
:100DB000000A05F0F5F884ED020AE868E06094F8AE
:100DC0002C0030B109E084ED018AE1E784ED028A6C
:100DD000F3E794ED000A84ED0C0A94ED000AF2EEBC
:100DE000040A30EEC00AF0EE080A80EE201A84ED04
:100DF0000D1ABDEC028B70BDFFFF7F7F2DE9F04F18
:100E000004462DED0E8B203083B00025B0EE64AA91
:100E1000F0EE43AAB0EE63BAF0EE44BAB0EE40CAC8
:100E2000C0EC031AF0EE60CA94F82C00B0EE41DA80
:100E3000012814D194ED0C0AD4ED0D0A00EECA0A73
:100E400084ED0C0AD4ED000AB4EEE00AF1EE10FADB
:100E500005D2C4ED0C0A84F82C5084F8585094ED57
:100E6000070AB6EE008AD4ED040A94ED053A94ED33
:100E7000061AF0EE488A23EE009A50EEA08A61EE40
:100E8000009AA94600EEC19AB0EE621A40EE839A2B
:100E900040EE008AF0EE420AB0EE610ACA46012630
:100EA000D34684F85060F0EE41EAB0EE60EAF0EE2E
:100EB00040DA00F008FBE8BBE168606D884211D9B8
:100EC000D4E90580E1692769CDE900012046FFF7F3
:100ED000B1FEDDE900016565C4E90601C4E90478F5
:100EE00084F85860B0EE6E1AF0EE4E0AB0EE6D0A5D
:100EF00000F00EFBF0EE682AB0EE692AF0EE491A17
:100F000000F0BFFA04F1380080EC030A94F82C00DA
:100F1000012808D000F0EAFAD4ED010AB4EEE00AA4
:100F2000F1EE10FA20D804F1380007C881468A464D
:100F3000934600E009E084F85050606D0A2801D320
:100F40000A2100E00021401A60652F460120B846C2
:100F500084F85900B0EE6B1AF0EE4B0AB0EE6A0A54
:100F600000F0B1FA18B169E0606D401CECE784F85C
:100F70006050E168E06D2E46884214D9F0EE6B2A8D
:100F8000B0EE4B2AF0EE6A1AB0EE681AF0EE690A7B
:100F9000B0EE490A00F038F92046FFF771FE012053
:100FA000E66584F86000D4ED060A94ED040AD4EDF9
:100FB000051A94ED071A10EE008A61EEA0DA20EE11
:100FC00081EAF0EE6B2AB0EE4B2A40EE01DA00EE39
:100FD00061EA00EEA08AF0EE6A1AB0EE681AF0EE4E
:100FE000690AB0EE490A00F04CFA00F091FAF0EE0E
:100FF0004E2AB0EE482AF0EE6D1A00F042FA04F1E3
:10100000440080EC030A94F82C00012808D000F07A
:101010006DFAD4ED020AB4EEE00AF1EE10FA7CD8D3
:10102000D4E91270656C804684F85960E06D0A2836
:1010300001D30A2100E00021401AE065B6EE000A63
:1010400000F00AF9F0EE401AB0EE4D1AF0EE6C0A1C
:10105000B0EE4C0A00F055FAB0EE409AF0EE608A1D
:10106000B0EE418A02EE908A02EE107A01EE905ABA
:1010700001EE10BA00EE90AA00EE109A00F0FAF914
:10108000D4ED0C1A00F03DFAF0EE412AB0EE602AE1
:10109000F0EE401AB0EE481AF0EE680AB0EE490AD7
:1010A00000F0E8F9D4ED048A94ED058A94ED069AEF
:1010B000D4ED079AF0EE4A1A00F023FA28EE402AFF
:1010C00068EE802A68EEA01A09EE602A49EE012A2D
:1010D00048EE411A09EEC12A28EE811A49EEE02AAB
:1010E00049EE801A08EE201A78EE220A79EE211ACB
:1010F00009EE401A38EE820AF0EE608AB0EE618A9C
:1011000084ED040AC4ED050A39EE811AC4ED061A0D
:10111000F0EE409A84ED071A00E020E029EEA90ADB
:10112000B0EE419A08EEA80A08EE080A09EE090A8C
:1011300000F09AF829EE801A68EE800A68EE001A2C
:1011400029EE000A84ED041AC4ED050AC4ED061A5E
:1011500084ED070A03B0BDEC0E8BBDE8F08FE06DA7
:10116000401C6AE7002110B5F0EE434A044604EE45
:10117000101A03EE901A03EE101AFFF73FFE94F8D0
:101180002C0001280AD194F85800002806D12046E6
:10119000BDE810409FED020AFFF772BD10BD0000D0
:1011A000000000000FB42DED0A0B00B52DED048BEF
:1011B000B0EE618AF0EE428AB0EE629A85B0F0EE4F
:1011C000442AB0EE632AF0EE431A00F0E7F920EE6D
:1011D000088A60EEA88A21EE099A142218A96846A6
:1011E000FFF723F90DF1500CB0EE491A9CE80F00FF
:1011F000F0EE680AB0EE480A00F050F805B0BDEC19
:10120000048B5DF83CFB000010B52DED048BF0EE77
:10121000419AB0EE609AF0EE408A00F043F900F097
:1012200093F9B0EE408AF0EE692AB0EE492AF0EE6A
:10123000681A00F037F900F087F9F0EE400AB0EED6
:10124000480A04F0DDFCDFED030ABDEC048B20EE60
:10125000200A10BDE02E6542DFED020A20EE200AD2
:101260007047000035FA8E3C10EE100A9FED091A07
:101270000749A1EB600020EE010A00EE900A20EE83
:10128000201A9FED050A01EE600A20EE200A704741
:1012900012141F5F12D3363FFF51D83F0FB4B0EE88
:1012A000402A2DED040BDDED041ADDED052A21EEBB
:1012B000820AF0EE601ADDED060A02EEA10A00EEE7
:1012C000810ADDED070A60EE822ADDED080A40EEB4
:1012D000A12ADDED090A40EE812AF0EE620ADDED79
:1012E0000A2A22EE822ADDED0B2A02EEA12ADDED8A
:1012F0000C1A08B001EE812AB0EE421A70470000C5
:1013000000EE101AB7EE001A01EB8101F8EE400A68
:1013100081EE200ADFED060A20EE200A80ED000AA9
:10132000416000218160C16001614161704700003E
:10133000FDAD003ED0ED032A90ED042AD0ED051A54
:1013400030EE620A70EEC20A31EE611A1D49B0EE4B
:10135000C03A13EE102A8A420FDCB0EE603AB0EECB
:10136000C33A13EE102A8A4207DCB0EE413AB0EEDF
:10137000C33A13EE102A8A4201DD002104E0D0E9CD
:101380000121914202D2491C8160704790ED003AE0
:10139000F0EE403AB0EE604AF0EE414A63EE833A36
:1013A00024EE034A24EE833A72EEA32A32EE042A94
:1013B00071EE831AC0ED032A80ED042AC0ED051AF0
:1013C000704700000000404010B52DED088BB6EED0
:1013D000008AB0EE40AA01EE418A2AEE200AF0EE21
:1013E000609AB0EE419AF0EE618A01EE210AF0EEC9
:1013F000480A49EEE90A04F003FCDFED1BAAB0EE4F
:10140000491AF0EE681A20EE2ABA2AEE010AF0EE26
:10141000000A01EEE90A20EE200A10EE100A10F18F
:10142000814F02D39FED110A09E010EE100AB0F1CE
:101430007E5F02DB9FED0E0A01E004F04BFB60EEE5
:101440002ABA08EEE88A2AEE280A09EE890AF0EE9E
:10145000480A04F0D5FB20EE2A1AB0EE4B0AF0EE53
:101460006B0ABDEC088B10BDE02E6542DB0FC9BFD7
:10147000DB0FC93F30EE210A70EE820A31EE221AEC
:101480007047B0EE603A61EE210A63EE223A40EE18
:10149000620A41EE423A20EE021A03EE611AB0EE01
:1014A000630A7047B0EE603A61EE210A63EE223AB9
:1014B00040EE620A41EE423A20EE021A03EE611A51
:1014C000B0EE630A7047B5EEC00AF1EE10FA0BD128
:1014D000F5EEC00AF1EE10FA06D1B5EEC01AF1EE43
:1014E00010FA01D1012070470020704720EE000A59
:1014F00060EEA00A21EE011A30EE200A30EE010A59
:10150000704720EE210A60EEA10A21EE211A7047F1
:1015100010B52DED048BF0EE418AB0EE608AB0EE8E
:10152000409AFFF7E3FFFFF79FFEF0EE401AB0EEA0
:10153000681AF0EE480AB0EE490ABDEC048BBDE82B
:101540001040FFF7DEBF000060EE001A20EEA02A78
:1015500061EE012A0E4971EE821A71EEA21ADFEDD8
:101560000D2A11EE900A61EEA21AA1EB600002EEC4
:10157000100A61EE822ADFED081A42EEC21A61EE0D
:10158000821A20EE210A60EEA10A21EE211A70478C
:1015900012141F5F12D3363FFF51D83F30EE610A5D
:1015A00070EEC20A31EE621A704710B590F825301D
:1015B00000210122022B03D00421C163012122E07A
:1015C00003681C6824F00E041C60836C1C6824F4FF
:1015D00080741C6003681C6824F001041C6090F88F
:1015E0004430046C03F01F0302FA03F36360D0E994
:1015F00013345C60436D33B11C6824F480741C6048
:10160000D0E916345C6080F82520002280F8242080
:10161000084610BD70B590F825200024012123460E
:10162000022A07D00422C26380F8251080F82430F3
:10163000012429E00268156825F00E05156002688E
:10164000156825F001051560826C156825F4807514
:10165000156090F84420056C02F01F0201FA02F2B6
:101660006A60D0E913255560426D32B1156825F4E2
:1016700080751560D0E91625556080F8251080F832
:101680002430816B01B18847204670BDF0B4016CF5
:101690000C6801680D6890F8442002F01F060422CF
:1016A00002FA06F3234211D06B070FD50B689B0695
:1016B00003D40B6823F004030B6090F8441001F08E
:1016C0001F018A40016C4A60016B1DE0022303FA8E
:1016D00006F727424FF0000C4FF0010218D0AF0779
:1016E00016D50C68A40605D40C6824F00A040C6016
:1016F00080F8252090F8441001F01F018B40016C08
:101700004B6080F824C0C16A00291AD0F0BC084799
:101710000823B340234214D02B0712D50B6823F0C3
:101720000E030B6090F84410036C01F01F0102FAE5
:1017300001F15960C26380F8252080F824C0416B14
:10174000E2E7F0BC7047000070B504000CD02B4AF3
:1017500021681420914209D2294A0A44B2FBF0F0D0
:101760008000606427480AE0012070BD234A52428D
:101770000A44B2FBF0F0800060642048083820641E
:10178000022084F825000A6847F6F0708243D4E905
:1017900002031843D4E904352B431843A3691843C3
:1017A000E3691843236A1843104308602046FFF793
:1017B0005FF8A0680025B0F5804F00D16560A16C8E
:1017C00020790860D4E9130141606068401E032855
:1017D00008D82046FFF76CF8606D0560D4E9160163
:1017E000416002E06565A565E565E563012084F873
:1017F000250084F82450002070BD00000804024039
:10180000F8FFFDBF0000024070B5044690F82400C8
:10181000002501280CD0012084F8240094F82560CC
:101820000020012E06D084F824000225284670BD31
:10183000022070BD022684F82560E06320680668F7
:1018400026F0010606602046FFF744F8206B0028CA
:101850002068016802D041F00E0106E021F0040189
:1018600001602068016841F00A010160A06C016814
:10187000C90303D5016841F480710160606D18B13E
:10188000016841F4807101602068016841F0010144
:101890000160CBE730B590F85C30012B07D0022B0C
:1018A00005D0016E41F002010166012030BD0468DF
:1018B000A36D4D0701D0DD071DD011F0380F01D009
:1018C0009D0718D511F4E07F01D05D0713D511F401
:1018D000F05F01D01D070ED511F4604F01D0DD0679
:1018E00009D511F4403F01D09D0604D511F47C0FB9
:1018F00005D05D0603D4E56D45F00105E5654C07AF
:1019000001D0DC071DD111F0380F01D09C0718D48D
:1019100011F4E07F01D05C0713D411F4F05F01D023
:101920001C070ED411F4604F01D0DC0609D411F469
:10193000403F01D09C0604D411F47C0F06D05B0616
:1019400004D50368DC6D44F00204DC650B0604D5A5
:10195000036853F8DC4F14431C60CB0504D50368BF
:1019600053F8E04F14431C600068426D0A4342651F
:10197000002030BD70B5044690F85C00022803D00A
:10198000206E40F0080007E02068D0F8C4309B02C9
:1019900005D5206E40F400702066012070BDD0F89F
:1019A000C400C0F301452B462046FEF7FFFF216827
:1019B0000120A840C1F8CC00A065002070BD10B582
:1019C00090F85C20012A07D0022A05D0016E41F070
:1019D00002010166012010BD0A687AB10B7B0A6919
:1019E0000C7A42EA43734A69406C496842EA84725D
:1019F00000EBC100C0E90032002010BD0B7A4A693B
:101A00000C8A42EA83720B7B006CDB06496843EA6E
:101A100004431A4340F82120EEE730B590F85C50BB
:101A2000039C012D05D0016E41F0040101660120E7
:101A300030BD0901006841EA820141EA430150F8E2
:101A4000802F214322F03F0211430160002030BD6E
:101A50002DE9F041040006D0DFF8E88194F85C003D
:101A6000002518B107E00120BDE8F08184F85D5041
:101A7000204600F0EFF82068816921F010018161B3
:101A800000F05AFA0646032705E000BF00F054FABA
:101A9000801B0A2811D8206880690007F6D42068C6
:101AA000816941F00101816100F046FA06460BE0D0
:101AB00000F042FA801B0A2806D9206E40F001008F
:101AC000206684F85C70CEE720688069C007EFD09C
:101AD0002068816941F0020181612168414502D19C
:101AE000594960680860207C01282068816937D0E6
:101AF00041F040018161607C01282068816932D019
:101B000021F480418161A07C0128206881692DD069
:101B100041F48051816120688169A26821F440719B
:101B2000114381612068816921F0A40181612068ED
:101B3000016921F010010161E068012819D010B39A
:101B400002281BD02068816941F0800181612068F2
:101B5000016941F010010161E06803280ED012E034
:101B600021F04001C6E741F48041CBE721F48051E8
:101B7000D0E72068816941F0040103E020688169B1
:101B800041F020018161207EE26940066FF0FF0193
:101B900001EB0222A0F100701043226AA38A521EB8
:101BA00010430A0202EB034318432368D861A0687C
:101BB000B0F5407F10D1D4E90A0301EB0321401EA8
:101BC0000843216B131303EB01110843A18C02EBB3
:101BD000014108432168C860206850F8C01FE26BCB
:101BE0001143016019482064216851F8802FA38EA9
:101BF00022F4F81242EA03420A6014497031616427
:101C0000216851F8802F94F8383022F0706242EA4F
:101C100003620A600D49B031A1640D49E1640C49C9
:101C2000D83121650A49F031616500F5547120C051
:101C30008842FCD3A5652566012084F85C0000205D
:101C400012E70000006400400065004000A400406E
:101C500088A5004010B586B0044614216846FEF7FA
:101C600038FC16492068884226D1154850F8881F4C
:101C700021F0407141F0007140F83C19C16841F019
:101C80000071C160C16801F000710591016841F007
:101C9000010101600068002100F0010005904FF48F
:101CA000C05000900220CDE901010390092004906A
:101CB0006946C00600F01CF806B010BD0064004084
:101CC0000010024090F85C10012905D0016E41F02F
:101CD0000401016601207047022180F85C10016850
:101CE0008A6922F001028A61002101660846704774
:101CF0002DE9F04FDFF82092002301260324A9F1FB
:101D0000040B85B00F2709F1040AABF1040EFAE0C9
:101D100006FA03F52A407CD091F804C00CF0030CBD
:101D2000BCF1010F02D0BCF1020F26D1D0F808C0DF
:101D3000CDF800C04FEA430C04FA0CF8CDF810C0FF
:101D4000DDF800C02CEA080CCDF800C0D1F80C80FA
:101D5000DDF810C008FA0CF8DDF800C048EA0C08FD
:101D6000C0F80880D0F804C02CEA050C0D79C5F342
:101D700000159D4045EA0C0545600D79ED43AD0722
:101D80000ED0C5684FEA430804FA08FC25EA0C05A2
:101D9000D1F808C00CFA08FC4CEA050CC0F80CC0DD
:101DA0000D7905F00305022D16D1DD0800EB850C39
:101DB000CDF808C0DCF820805D074FEAD56C07FA43
:101DC0000CF528EA05080D6905FA0CF5DDF808C0E0
:101DD00045EA0805CCF8205005684FEA430CCDF8D9
:101DE00008C004FA0CFC25EA0C0591F804C00CF0BC
:101DF0000308DDF808C008FA0CF848EA0508C0F83E
:101E000000804D6815F4403F7CD0444DD5F860C04B
:101E100000E077E04CF0010CC5F860C02D6E23F0B7
:101E2000030C05F0010500953D4D65440295AD6834
:101E30004FEA837C4FEA1C7807FA08FC25EA0C0578
:101E4000B0F1904F06D0DFF8DCC0604505D14FF00F
:101E5000010C20E04FF0000C1DE0DFF8CCC0604525
:101E600002D14FF0020C16E0DFF8C0C0604502D18D
:101E70004FF0030C0FE0DFF8B8C0604502D14FF01F
:101E8000040C08E0DFF8ACC0604502D14FF0050C4F
:101E900001E04FF0060C0CFA08FC4CEA050C029D20
:101EA000C5F808C0D9F80050CC46D1F80480954355
:101EB0005FEAC82800D51543CCF80050DAF8005086
:101EC000D446D1F8048095435FEA882800D51543AD
:101ED000CCF80050DBF80050DC46D1F80480954384
:101EE0005FEA883800D51543CCF80050DEF8005082
:101EF000F446D1F8048095435FEAC83800D515430D
:101F0000CCF800505B1C0A6832FA03F57FF400AF8E
:101F100005B0BDE8F08F0000080401400010024049
:101F2000000001400004004800080048000C004880
:101F30000010004800140048014880687047000005
:101F40001000002090F84120202A24D190F8402051
:101F5000012A20D0012280F84020242280F841204C
:101F60000268136823F0010313600268136823F406
:101F700080531360026813680B43136001680A689A
:101F800042F001020A60202180F84110002180F80F
:101F90004010084670470220704790F84120202AE0
:101FA00022D190F84020012A1ED0012280F8402042
:101FB000242280F841200268136823F00103136093
:101FC0000268136823F4706343EA01211160016819
:101FD0000A6842F001020A60202180F841100021C5
:101FE00080F84010084670470220704770B5040022
:101FF00004D094F84100002510B106E0012070BD26
:1020000084F84050204600F0ABF9242084F84100C9
:102010002068016821F0010101606068216820F0FA
:10202000706008612068816821F400418160E06887
:102030000128A06807D040F4044021688860E06867
:10204000022803D006E040F40040F6E721684FF490
:102050000060486020684168114A1143416020686F
:10206000C16821F40041C160D4E904010843A169B9
:1020700040EA01202168C860D4E9070108432168CB
:1020800008602068016841F001010160656420205A
:1020900084F84100256384F84250002070BD0000A0
:1020A000008000022DE9FF4F83B00446DDE9108770
:1020B00090F84100DDF848909A469346202874D164
:1020C0005FEA080014D09FB194F8400001286CD05A
:1020D000012084F84000FFF72FFF06460122009000
:1020E0001923D103204601F0DFF9002871D103E064
:1020F0004FF4007060646CE0222084F841004020BE
:1021000084F8420000256564C4F82480678565630F
:10211000CDE9009653465A462046049901F048F905
:1021200010B184F8405054E0618D3548FF274FF0DE
:1021300080784FF0007AFF2904D927853A46434634
:10214000009005E0618D2185009094F82820534689
:102150002046049901F090F94B46002204212046C4
:10216000009601F0A1F9A0BB2068406A616A08707E
:10217000606A401C6062208D401E81B22185608DA6
:10218000401E6085608DD8B1D1B94B4600228021B8
:102190002046009601F088F9D8B9608DFF2805D94E
:1021A00027853A464346009506E026E0608D208567
:1021B000009594F8282053462046049901F05CF9D4
:1021C000608D0028C8D132464946204601F098F972
:1021D00018B1012007B0BDE8F08F21682020C86148
:1021E00021684A68074B1A404A6084F8410084F825
:1021F000425084F840500020ECE70220EAE700005B
:102200000024008000E800FE2DE9FF4F83B0044663
:10221000DDE9108790F84100DDF848909A46934632
:10222000202871D15FEA080014D09FB194F84000D3
:10223000012869D0012084F84000FFF77DFE0646A2
:10224000012200901923D103204601F02DF9002826
:102250006ED103E04FF40070606469E0212084F8DF
:102260004100402084F8420000256564C4F82480C1
:1022700067856563CDE9009653465A462046049922
:1022800001F0C8F810B184F8405051E0608DFF278C
:102290004FF080784FF0007AFF2804D927853A461E
:1022A0004346009505E0608D2085009594F8282030
:1022B00053462046049901F0DFF83246494620464D
:1022C00001F044F9A0BB606A216800788862606A06
:1022D000401C6062608D401E6085208D401E80B273
:1022E0002085618DD9B1D0B94B460022802120468E
:1022F000009601F0D9F8D8B9608DFF2805D9278557
:102300003A464346009506E026E0608D208500951C
:1023100094F8282053462046049901F0ADF8608DCA
:102320000028CAD132464946204601F0E9F818B1E2
:10233000012007B0BDE8F08F20682021C16120682E
:102340004268064B1A40426084F8411084F84250BB
:1023500084F840500020ECE70220EAE700E800FEA5
:102360002DE9F04186B0044614216846FEF7B1F825
:102370001E492068884236D11D4801684FF0000888
:1023800021F4405101601A4C883CE06C40F001009F
:10239000E064E06C00F001000590E06C40F00200A9
:1023A000E064E06C122500F0020005904FF400405C
:1023B0008DE82101022604276946A806CDE90367B6
:1023C000FFF796FC80208DE8210169460948CDE998
:1023D0000367FFF78DFCA06D40F40010A065A06DB1
:1023E00000F40010059006B0BDE8F08100540040F4
:1023F0008810024000040048024881684268114485
:10240000816070471000002010B50024032000F008
:1024100073F80F2000F008F808B1012401E000F083
:1024200025F8204610BD000070B50E4E054600246C
:10243000706898B14FF47A71B1FBF0F00A490968FD
:10244000B1FBF0F000F02FFC40B9102D06D20022B5
:102450002946501E00F030F8356000E00124204687
:1024600070BD0000100000201C0000200A4882B04F
:10247000016E41F001010166016E01F00101009160
:10248000816D41F080518165806D00F08050009039
:1024900002B000F043B8000000100240002809DB41
:1024A00000F01F02012191404009800000F1E0206E
:1024B000C0F8001170470000F0B40E4B1B680C46CA
:1024C000C3F30223C3F10705042D00D90425191D08
:1024D000072901D2002300E0DB1E012606FA05F1E0
:1024E000491E214099409E40761E16403143F0BC63
:1024F00003F0DFBA0CED00E0064900F007020868BF
:102500004FF6FF03184040EA0220034A10430860D8
:10251000704700000CED00E00000FA0502488168F9
:1025200041F48041816070470070004005480649D1
:1025300000688968054AC1F30221515C01F01F015E
:10254000C84070471C00002000100240887E000830
:102550000548064900688968054AC1F3C221515CF3
:1025600001F01F01C84070471C000020001002400D
:10257000887E0008184910B58868C0F381021748A2
:10258000012A0BD08A684310C2F38102022A06D0C6
:102590008A68C2F38102032A03D0002010BD1846C6
:1025A00010BDCA6802F00304CA68C2F30312521CC9
:1025B000032C02D0B0FBF2F001E0B3FBF2F0CA68EA
:1025C000C968C2F306225043C1F34161491C490066
:1025D000B0FBF1F010BD0000001002400024F40038
:1025E00090F85D00704770B5040009D0606A00255E
:1025F00040B125616561A56294F85D0040B10CE0D1
:10260000012070BD6068B0F5827FF4D0E561F2E72B
:1026100084F85C50204600F05BF8022084F85D00EE
:102620002068016821F040010160E1684FF4E06238
:10263000914201D9002001E04FF48050B1F5706F54
:1026400002D0914200D0A562A188228901F4827152
:1026500002F404421143227C02F002021143227D63
:1026600002F001021143228B02F400721143227F17
:1026700002F03802114394F8202002F08002114346
:10268000228D02F40052114322681160A1690422D4
:1026900002EA114194F8242000F4805002F0100264
:1026A000114394F8342002F008021143A28902F485
:1026B000706211430143206841602068C16921F4C0
:1026C0000061C1612566012084F85D00002070BDB5
:1026D00010B586B0044614216846FDF7FAFE12498B
:1026E000206888421ED11148816D41F48041816586
:1026F000816D01F480410591C16C41F00201C1641A
:10270000C06C694600F0020005904FF460400090F4
:1027100002200190002002900390052004900448BC
:10272000FFF7E6FA06B010BD003800400010024086
:10273000000400482DE9F84F0446406800259846FB
:1027400016460F464FF0040BB0F5827F01D1A0680A
:1027500088B194F85C00012818D0012084F85C004E
:10276000FFF7EAFB814694F85D004FF0000A01286C
:102770000ED0022599E084F85DB013460A46204643
:10278000CDF8008000F05EF9BDE8F88F0220FBE78D
:10279000002F77D0002E75D084F85DB0C4F860A00B
:1027A0002764A4F84460A4F84660C4F838A0A4F8EC
:1027B0003CA0A4F83EA0C4F84CA0C4F850A0E06827
:1027C0004FF4E06188422068426802D922F48052C6
:1027D00001E042F480524260A068B0F5004F09D198
:1027E0002068026822F0400202602068026822F439
:1027F0008042026020680268520603D4026842F0F8
:1028000040020260E06888421DD93FE0206881688C
:10281000C9070BD0017B206C0170206C401C206428
:10282000B4F84600401EA4F846000CE0FFF784FB15
:10283000A0EB0901414503D3B8F1FF3F03D03BE0D2
:10284000B8F1000F38D0B4F846000028DED121E0FE
:1028500020688168C9070BD0C068216C0880206C93
:10286000801C2064B4F84600401EA4F846000DE029
:10287000FFF762FBA0EB0901414504D3B8F1FF3F2C
:1028800004D019E010E0B8F1000F15D0B4F84600FC
:102890000028DDD14A464146204602F0B4FA08B18C
:1028A00020202066206E00B10125012084F85D0003
:1028B00084F85CA0284667E70325F6E72DE9F84F82
:1028C000044690F85C0000271D46164689460128FC
:1028D0000DD04FF0010B84F85CB0FFF72DFB804664
:1028E00094F85D00BA46012804D00227A4E0022033
:1028F000BDE8F88FB9F1000F74D0002E72D003201C
:1029000084F85D00C4F860A0C4F83890A687E68714
:10291000C4F840A0A4F844A0A4F846A0C4F850A06D
:10292000C4F84CA0A068B0F5004F09D12068016838
:1029300021F0400101602068016841F4804101609C
:1029400020680168490603D4016841F04001016034
:10295000E068B0F5E06F606823D908B1012E1CD1A2
:10296000A06B21680088C86006E02068816889073C
:1029700009D5A16B0988C160A06B801CA063E08FA2
:10298000401EE08709E0FFF7D7FAA0EB0800A84255
:1029900002D3681C01D046E0ADB3E08F0028E4D13B
:1029A00036E008B1012E30D1E08F0128A06B03D9A9
:1029B00021680088C8600FE021680078087314E07F
:1029C000E08722E020688168890714D5E18F01291A
:1029D000A16B08D90988C160A06B801CA063E08F3F
:1029E000801EEDE727E009780173A06B401CA0630F
:1029F000E08F401EE4E7FFF79FFAA0EB0800A84233
:102A000002D3681C01D00EE06DB1E08F0028D9D14F
:102A100042462946204602F030FA08B120202066BE
:102A2000A06810B105E0032706E02068C16880684F
:102A30000090206E00B1012784F85DB084F85CA09E
:102A4000384655E72DE9F05F044690F85C00002712
:102A50000A9E1D4692468B464FF0010901280ED072
:102A6000012084F85C00FFF767FA804694F85D0067
:102A7000616801280CD0B1F5827F07D102E0022005
:102A8000BDE8F09FA16809B9042801D0022700E140
:102A9000BBF1000F24D0BAF1000F21D005B394F898
:102AA0005D00042802D0052084F85D000020206627
:102AB000C4F840A0A4F84650A4F84450C4F838B074
:102AC000E587A587E0642065E0684FF4E06188420F
:102AD00001D8012D06D92068426822F4805205E011
:102AE0000127D6E02068426842F4805242602068A4
:102AF0000268520603D4026842F040020260E068B5
:102B00008842606845D908B1012D3AD1A06B21688F
:102B10000088C860A06B801CA063E08F401EE08727
:102B20002FE02068816889070FD5E18F69B1B9F17D
:102B3000010F0AD1A16B0988C160A06B801CA06342
:102B4000E08F401EE0874FF0000920688168C907C8
:102B50000FD0B4F8461061B1C068216C0880206CB9
:102B6000801C2064B4F84600401EA4F846004FF0D4
:102B70000109FFF7E1F9A0EB0800B04201D3701C96
:102B800075D1E08F0028CCD1B4F846000028C8D118
:102B900076E008B1012D6CD1E08F0128A06B08D937
:102BA00021680088C860A06B801CA063E08F801E35
:102BB00007E0216800780873A06B401CA063E08FD9
:102BC000401EE08755E02068816889071AD5E18FAB
:102BD000C1B1B9F1010F15D1E18F0129A16B07D95D
:102BE0000988C160A06B801CA063E08F801E06E096
:102BF00009780173A06B401CA063E08F401EE08742
:102C00004FF0000920688168C90728D0B4F8461041
:102C100029B3B4F84610012914D9C068216C088082
:102C2000206C801C2064B4F84600801EA4F8460086
:102C3000B4F84600012810D82068416841F480515A
:102C400041600AE0007B216C0870206C401C20640D
:102C5000B4F84600401EA4F846004FF00109FFF703
:102C60006BF9A0EB0800B04202D3701C01D018E051
:102C7000BEB1E08F0028A6D1B4F846000028A2D14A
:102C800042463146204602F0F8F810B101272020D4
:102C90002066012084F85D00002084F85C0038463E
:102CA000EEE60327F5E710B5401EB0F1807F01D3B3
:102CB000012010BD4FF0E02460610F21601702F089
:102CC000F8FE0020A06107202061002010BD90F8D0
:102CD0008010012918D0012180F880102421C0F82B
:102CE000841050F8641B0A680B6823F001030B6022
:102CF00022F000510022026050F8643C196020214B
:102D00000162027710467047022070477047704793
:102D100070B5044690F8800001281DD0012084F889
:102D200080002420C4F8840020680568026822F02E
:102D3000010202602068826822F060620A438260B9
:102D4000204602F05DFB206805602020C4F8840066
:102D5000002084F8800070BD022070BD70B504466C
:102D600090F8800001281DD0012084F880002420E4
:102D7000C4F8840020680568026822F0010202603D
:102D80002068826822F060420A438260204602F096
:102D900037FB206805602020C4F88400002084F8F8
:102DA000800070BD022070BD704770477047000002
:102DB0002DE9F04103680446D86919689A6840F61D
:102DC0000F0528424FF0000509D186067ED501F097
:102DD000200602F080573E4378D0216F27E1A94EAC
:102DE000A94F16400F40374370D0C70709D0CF0511
:102DF00007D501271F62D4F88C3043F00103C4F8D3
:102E00008C3083070AD5D30708D0276802233B629A
:102E1000D4F88C3043F00403C4F88C3043070AD54F
:102E2000D30708D0276804233B62D4F88C3043F0E2
:102E30000203C4F88C3003070CD501F020033343A0
:102E400008D0266808233362D4F88C3043F0080396
:102E5000C4F88C3003050BD54B0109D526684FF417
:102E600000633362D4F88C3043F02003C4F88C3014
:102E7000D4F88C30002B3AD0800609D501F0200020
:102E800002F08051084303D0216F09B120468847E2
:102E9000D4F88C0021688968490602D410F0280F04
:102EA00027D0204602F0BAFB2068806840061BD578
:102EB0002068083050E8001F21F0400140E800126F
:102EC000002AF5D1E06F78B1704900E017E0816326
:102ED000E06FFEF79FFB002809D0E06F816B00E0F8
:102EE0002046BDE8F04108472046FFF75FFFBDE8F8
:102EF000F0812046FFF75AFFC4F88C50F7E7E76EE1
:102F00002026012F7ED1C7067CD5CF067AD510208A
:102F1000186220688068400642D5E16F0868406802
:102F20000004000CE3D0B4F85C208242DFD9A4F89E
:102F30005E000868006880062BD4206850E8001FF7
:102F400021F4807140E80012002AF6D12068083090
:102F500050E8001F21F0010140E80012002AF5D1DD
:102F60002068083050E8001F21F0400140E80012BE
:102F7000002AF5D1C4F88860E566216851E8000FA1
:102F800020F0100041E80002002AF6D1E06FFEF7C1
:102F90000CFBB4F85C00B4F85E10401A81B22CE06F
:102FA000B4F85C00B4F85E10401A81B2B4F85E0068
:102FB00000289CD000299AD0226852E8000F20F403
:102FC000907042E80003002BF6D12E4BDB432068C3
:102FD000083050E8002F1A4040E80027002FF6D1B3
:102FE000C4F88860E5662567226852E8000F20F083
:102FF000100042E80003002BF6D12046FFF786FEC2
:1030000075E7FFE7C70209D5570207D54FF48010CF
:1030100018622046BDE8F041FFF7C7BE03060AD597
:1030200001F0800302F40002134304D0616F002911
:103030007FF456AF5BE7420611D54A060FD520460E
:10304000016851E8002F22F0400241E80023002BE4
:10305000F6D1C0F88460456700F0FAF847E702024D
:1030600006D54A0004D52046BDE8F041FFF79CBED6
:10307000C001C5D50029C3DA2046BDE8F041FFF7FD
:1030800046BE000001000010200100046D5500083C
:1030900010B5040003D0D4F8840010B107E001207B
:1030A00010BD002084F88000204600F027F824207E
:1030B000C4F884002068016821F001010160204605
:1030C00002F0EEFA0128EBD0A06A10B1204602F01F
:1030D000B9F92068416821F4904141602068816815
:1030E00021F02A0181602068016841F0010101603E
:1030F0002046BDE8104002F009BA000070B586B065
:10310000064614216846FDF7E4F9244930688842F0
:1031100042D1234951F8880F002520F00C0041F8D6
:103120003C09C86840F40030C860C86800F400304A
:103130000590086840F0010008600868694600F0E2
:10314000010005900C2000900220CDE90105072028
:10315000CDE903504FF09040FEF7CAFD124C1148E4
:1031600020601B2060601020C4E902058020C4E9B3
:103170000405A561E56120462562FEF7E5FA08B180
:10318000FDF7D6FBB467002202212620A662FFF7D6
:1031900093F92620FFF782F906B070BD0044004085
:1031A000001002401C0002402402002070B50446BA
:1031B000D0F88400202842D171B36AB394F880001B
:1031C00001283CD0012084F880002165A4F8542017
:1031D000A4F856200025C4F88C502120C4F884009F
:1031E000A06FD8B11749C162A16F17481346086391
:1031F000A16F16484863A06F85632668216D06F1AC
:103200002802A06FFEF700FB40B11020C4F88C002C
:1032100004F8805F20206060012070BD216840209C
:10322000086284F880502068083050E8001F41F0A0
:10323000800140E80012002AF5D1002070BD022074
:1032400070BD0000D15500081356000881550008D4
:1032500000680349884202D1024901200870704782
:1032600000440040000000207047FEE701688A69C2
:10327000D243920701D400228A6200688169C9435F
:10328000C90703D0816941F00101816170470000E5
:103290002DE9F047044600688A46174681690025F3
:1032A0002E46C906A9464FF0200849D51021C16114
:1032B00037E000BFBAF1FF3F33D0FEF73DFEC11B40
:1032C000514502D8BAF1000F2BD12068416894F81B
:1032D000422001F480418369DB431B041CD4B1F517
:1032E000804F19D0202A17D0416841F480414160B5
:1032F000FEF722FE07460FE0FEF71EFEC01B192850
:103300000AD9606C40F02000606484F8418084F841
:10331000429084F84090012520688069C04380066F
:10332000EAD420688069C043800602D5002DC1D050
:1033300003E015B92168C1F81C8046F00406012598
:1033400021688869C20505D54FF4807246F00106F0
:10335000CA610125410509D522684FF4806146F014
:103360000806D1610125800502D40AE0800507D551
:1033700021684FF4007046F00206C861012500E0A4
:103380008DB12046FFF772FF54F8240B4168074ABD
:1033900011404160206A3043206284F81D8084F827
:1033A0001E9084F81C902846BDE8F08700E800FED7
:1033B0002DE9F84304461646DDE908971448984677
:1033C000DAB200900023204600F056F83A4649460B
:1033D000204600F0BBF8B8B9F5B2B8F1010F08D03B
:1033E0002168300A88623A464946204600F0AEF825
:1033F00050B9206885624B46002240212046009744
:1034000000F052F8002800D00120BDE8F883000049
:10341000002000802DE9F8430446164615489846DA
:10342000DDE90897DAB2C3020090204600F024F8E4
:103430003A464946204600F089F8B8B9F5B2B8F1E5
:10344000010F08D02168300A88623A464946204672
:1034500000F07CF850B9206885624B46002280213C
:103460002046009700F020F8002800D00120BDE899
:10347000F88300000020008010B5C1F3090141EA83
:1034800002410268029C19432143506821F0004127
:103490004FF4806303EA5453024C23439843084398
:1034A000506010BDFF63FF032DE9F0411D46174634
:1034B0000E460446DDF8188008E0681C06D0FEF7CA
:1034C0003BFDA0EB0800A8420BD855B120688069ED
:1034D00036EA000012D00020B842EED00020BDE84D
:1034E000F08154F8440F40F0200044F804092020F3
:1034F00060700020A07020700120F0E70120EBE751
:1035000070B516460D4604460DE032462946204663
:10351000FFF7BEFE08B1012070BDFEF70DFD801B58
:10352000A84207D835B120688069C0438006ECD432
:10353000002070BD54F8440F40F0200044F8040906
:10354000202060700020A0702070E4E770B516465F
:103550000D4604460FE0324629462046FFF798FE06
:1035600008B1012070BD681C05D0FEF7E5FC801B8A
:10357000A84207D835B120688069C0438007EAD4E3
:10358000002070BD54F8440F40F0200044F80409B6
:10359000202060700020A0702070E2E71FB50A466E
:1035A000002101238DF80C1003EB4000C1B203ACE5
:1035B000FF200094CDE901300448FEF773FD10B1FF
:1035C000FF2004B010BD9DF80C00FAE7E4000020D5
:1035D0003EB50124CDE9003204EB4000C0B20A46FA
:1035E000FF240146029401230148FEF75BFD3EBD26
:1035F000E400002017B583B0FF24012305AA8DE85D
:103600001C004006000E0A4601460248FEF7FCFD7B
:1036100006B010BDE40000202DE9F041194D4FF433
:1036200000744FF090464FF4FA77B462384600F0D9
:1036300087FB03F02DFA2885322000F081FB288DCE
:103640000028F2D1B461384600F07AFB03F09CFE0A
:10365000032003F06DFE032003F022FE03F04CFE76
:1036600000220321104603F055FD00220321012012
:1036700003F050FD0A2000F063FBBDE8F04101F0CB
:10368000C1B8000008040020044908B58A6C024350
:103690008A64896C0140009108BD0000001002405E
:1036A000044908B5CA6C0243CA64C96C0140009160
:1036B00008BD000000100240044908B5CA6C02436E
:1036C000CA64C96C0140009108BD000000100240AE
:1036D000044908B58A6D02438A65896D01400091ED
:1036E00008BD000000100240044908B50A6E0243FC
:1036F0000A66096E0140009108BD000000100240FA
:10370000034A515C425842F00102425070470000A7
:10371000687F0008034A515C425842F0040242505C
:1037200070470000687F0008034A515C425842F02D
:103730000202425070470000687F0008F0B54F4B0E
:103740004E4A077A20330026151F1C1F0168002FE0
:1037500074D099B1477A5FB3012F31D0022F32D0A4
:103760000126857A55B1454908310A1F012D32D00D
:10377000022D3AD0032D3CD046F0020641680029C4
:1037800079D0427A82B3012A44D0022A45D046F049
:103790000406837A002B6ED0384928310A1F012B8A
:1037A00043D0022B4BD0032B4DD046F0050662E0F0
:1037B00017688F43176001682A680A432A60D0E7B8
:1037C0002F688F4301E02F680F432F600168156851
:1037D0000D431560C5E705680F68AF430F600168CA
:1037E00015680D431560C9E70CE005681768AF431D
:1037F00002E0056817682F43176002680D681543DB
:103800000D60BBE71A688A431A60416822680A4360
:103810002260BEE722688A4301E022680A432260F0
:1038200041681A680A431A60B3E743680C689C430E
:103830000C6040681168014311601CE00CE04368B3
:1038400014689C4302E0436814681C431460406899
:103850000A6802430A600EE02F688F432F600168F8
:1038600015688D431560416822688A43226040686C
:103870001968814319603046F0BD0000040401401E
:10388000F0B50A680F2692FAA2F2B2FA82F3032484
:103890008AE001259D402A407ED04D68012D01D04F
:1038A000022D20D18D68876892FAA2FCBCFA8CFCAC
:1038B0004FEA4C0E04FA0EFC27EA0C0792FAA2FC1F
:1038C000BCFA8CFC4FEA4C0C05FA0CF52F438760D0
:1038D000CF680D68D0F804C02CEA050C7D434CEA93
:1038E000050CC0F804C00F69D0F80CC092FAA2F51C
:1038F000B5FA85F54FEA450E04FA0EF52CEA050CEB
:1039000092FAA2F5B5FA85F56D00AF404CEA070CC6
:10391000C0F80CC04D68022D2FD1FF2A15D8D1F860
:1039200014C0056A92FAA2F7B7FA87F7BF0006FA41
:1039300007F7BD4392FAA2F7B7FA87F7BF000CFA70
:1039400007FC45EA0C05056217E0D1F814E0476A68
:10395000150A95FAA5FCBCFA8CFC4FEA8C0C06FA09
:103960000CFC95FAA5F5B5FA85F5AD0027EA0C072C
:103970000EFA05FE47EA0E0747624D68076892FA9D
:10398000A2FCBCFA8CFC4FEA4C0C04FA0CFE27EAB1
:103990000E0792FAA2F200E005E0B2FA82F25200BB
:1039A00095402F4307605B1C0A6832FA03F57FF4E9
:1039B00070AF0020F0BD000003498A6822F0F002D9
:1039C00002438A607047000000100240014908600D
:1039D000704700001C00002030B50A7B8B681F4C2C
:1039E0001A434B6822F480621A430B6822F4006287
:1039F0001A43CB8922F480521A430B6922F40052F5
:103A00001A43CB6A22F480421A4322F400421A433A
:103A1000114B984201D0A04207D14D6922F4702287
:103A20002A438D6922F080522A43984201D0A04255
:103A30000FD14B6A22F470021A43CB6922F08072D4
:103A40001A430B6A22F000721A43896A22F000526C
:103A50000A434264002030BD002C01400034014084
:103A60002DE9F0430268224B224D234E234C4FF0A8
:103A70008049984207D0484505D0A84203D0B042BB
:103A800001D0A04203D14F6822F070023A431C4F8C
:103A9000DFF870C0DFF8708098420DD048450BD039
:103AA000A84209D0B04207D0A04205D0B84203D006
:103AB000604501D0404503D1CD6822F440722A43CD
:103AC00002608A68C2620A888262984207D0A04275
:103AD00005D0B84203D0604501D0404501D1096905
:103AE0000163416941F0010141610020BDE8F083BB
:103AF000002C014000040040000800400034014058
:103B0000004001400044014000480140012922D00A
:103B1000042922D0102922D0402922D0B1F5807F5B
:103B200021D0B1F5806F20D0B1F5805F1FD0B1F505
:103B3000804F1ED0B1F5803F1DD009210F4A1830AB
:103B4000525C104402680D4B0A335B5C04219940BF
:103B50008A43026070470021F0E70121EEE702216D
:103B6000ECE70321EAE70421E8E70521E6E706217F
:103B7000E4E70721E2E70821E0E700003C7E0008D7
:103B8000012922D0042922D0102922D0402922D074
:103B9000B1F5807F21D0B1F5806F20D0B1F5805F85
:103BA0001FD0B1F5804F1ED0B1F5803F1DD0092147
:103BB0000F4A1830525C104402680D4B0A335B5CAC
:103BC000082199400A43026070470021F0E7012173
:103BD000EEE70221ECE70321EAE70421E8E705210B
:103BE000E6E70621E4E70721E2E70821E0E7000035
:103BF0003C7E00082DE9F0478C460121BCF5805F32
:103C000025D009DCBCF1010F14D0BCF1100F15D088
:103C1000BCF5807F16D116E0424B434C434D444ED9
:103C2000444F4FF00009BCF5803F14D0BCF5801F15
:103C300074D141E0114600F0ABFF02E0114600F004
:103C4000F3FF01466AE0114601F03EF8F9E711463C
:103C500001F088F8F5E7016A21F480310162D0F8BB
:103C600020C0016DDFF8D0802CF4003C01EA08018F
:103C7000D2F80080984241EA0801B2F810804CEA7C
:103C8000084CB2F804802CF4803C4CEA084C07D075
:103C9000A04205D0A84203D0B04201D0B84206D11C
:103CA0004368946923F4803343EA04234360016545
:103CB000D168826C81642EE0016A21F48011016276
:103CC000D0F820C0016DDFF874802CF4001C01EAEC
:103CD0000801D2F80080984241EA0821B2F8108029
:103CE0004CEA085CB2F804802CF4801C4CEA085CB6
:103CF00007D0A04205D0A84203D0B04201D0B842BC
:103D000006D14368946923F4802343EA8423436003
:103D10000165D168C164C0F820C049460846BDE8C5
:103D2000F0870000002C01400034014000400140B9
:103D300000440140004801408FFFFEFFFF8FFFFE5F
:103D400008B54FF0E0210A690092421C00D0401CE7
:103D50000A69D20300D5401E0028F9D108BD000031
:103D60002DE9F0414FF090474FF48076BE621B4C36
:103D7000206820F480602060184D083D286820F4F9
:103D800080602860C820FFF7DBFF00F059F8144975
:103D9000302881F8380003D0BDE8F041FCF7C8BDF9
:103DA000BE616420FFF7CCFF00F04CF900F04CF846
:103DB00000F02EF800F037F800F01FF80322002181
:103DC000052000F0C3F8206840F480602060286877
:103DD00040F480602860BDE8F081000008040140E4
:103DE000D404002010B5102209213020FFF702FC76
:103DF000BDE810400120FFF7A3BF10B5082209213C
:103E00003020FFF7F7FBBDE810400120FFF798BF17
:103E100010B580220A213020FFF7ECFBBDE81040EE
:103E20000A20FFF78DBF10B508213020FFF7B6FB41
:103E300000F001020821BDE810403020FFF7DABB96
:103E40002F213020FFF7AABB30B589B000200090A9
:103E5000019000F090F8FFF7D0FF012209213020F7
:103E6000FFF7C8FB0A20FFF76BFF6B460722002114
:103E70003020FFF7ADFB9DF800009DF80110800297
:103E800040EA81019DF8060041EA901105919DF8F4
:103E900002109DF80320890241EA8201C0F3011259
:103EA000114306919DF804109DF80520890241EA0E
:103EB0008201C0F3810001430791FFF793FF0122C4
:103EC00009213020FFF796FB0A20FFF739FF6B46E8
:103ED000072200213020FFF77BFB9DF800009DF8B2
:103EE0000110800240EA81019DF806009DF8032040
:103EF00041EA901102919DF80210134B890241EAA8
:103F00008201C0F30112114303919DF804109DF842
:103F10000520890241EA8201C0F381000143049136
:103F2000002005A902AA00BF51F8204052F82050F5
:103F30002C4403EB8005A408401CC0B2AC610328EC
:103F4000F2D309B030BD0000D404002070B50C4697
:103F50000546242209213020FFF74CFB22460A2186
:103F60003020FFF747FB45F00802BDE870400B2109
:103F70003020FFF73FBB10B50B213020FFF70EFBC1
:103F800020F007020B213020FFF734FBBDE8104082
:103F90001420FFF7D5BE00007CB5FFF744FF6B4649
:103FA000072200213020FFF713FB9DF800009DF849
:103FB000011080029DF8063040EA810040EA931427
:103FC0001E48C4609DF802109DF80320890241EA52
:103FD0008201C3F30112114301619DF804209DF891
:103FE0000550920242EA8502C3F381031A434261FB
:103FF0008369E31A00EE103AF8EE400A9FED100ACA
:1040000060EE800AC0ED000AC369C91A00EE901A7A
:10401000F8EE600A60EE800AC0ED010A016A511AEA
:1040200000EE901A24220921F8EE600A20EE800AA0
:1040300080ED020A3020FFF7DDFA7CBDD4040020B9
:104040000000803830B58BB000200090024601900F
:1040500009213020FFF7CEFA00220A213020FFF795
:10406000C9FA00220B213020FFF7C4FAFFF7C5FE82
:10407000012209213020FFF7BDFA0A20FFF760FE78
:104080006B46072200213020FFF7A2FA9DF80000BE
:104090009DF80110800240EA81019DF806009DF81C
:1040A000032041EA901106919DF80210890241EA2D
:1040B0008201C0F30112114307919DF804109DF88D
:1040C0000520890241EA8201C0F381000143089181
:1040D000FFF788FE012209213020FFF78BFA0A2022
:1040E000FFF72EFE6B46072200213020FFF770FA03
:1040F0009DF800009DF80110800240EA81019DF8C2
:1041000006009DF8032041EA901103919DF80210EA
:10411000134B890241EA8201C0F301121143049159
:104120009DF804109DF80520890241EA8201C0F340
:1041300081000143002006AD03AC059155F8202015
:1041400054F820108A4201D9511A00E0891A03EB71
:104150008002401CC0B2D1620328EFD30BB030BD47
:10416000D404002010B50420FFF78EFA0120FFF7D9
:104170008BFA10480068C0F30220011D072901D204
:10418000002000E0C01E0021814008010A4981F89A
:1041900000044FF0E0214FF40060C1F8000100225C
:1041A00011460C20FEF788F9BDE810400C20FEF700
:1041B00075B900000CED00E00BE000E0124810B50E
:1041C000104901600A21416000218160C1600174D1
:1041D0004174817401220823C0E905230523C361CA
:1041E0000223C0E908328262C262C0E90C21816305
:1041F000C163FDF72DFC002803D0BDE81040FCF79B
:1042000097BB10BD00640040800000202DE9F047FE
:104210008AB0002406940794182168460894FCF795
:1042200058F90420FFF73CFA2020FFF739FA012063
:10423000FFF736FA0220FFF733FA484E4FF40050EA
:10424000B062DFF81C914110C9F828104FF0904778
:104250004FF4807AC7F828A00011B86200010090DE
:104260000125CDE9015469463046CDE90345FFF704
:1042700007FB28034FF002088DE8210169464846F4
:10428000CDE90345FFF7FCFA2802CDE90005CDE9A9
:104290000254694638460494FFF7F2FA6802CDE901
:1042A0000005CDE90254694638460494FFF7E8FA60
:1042B0002C49886820F470624FF4706090FAA0F086
:1042C000B0FA80F000F01F0308FA03F002438A609E
:1042D0008DF820500F158DF8214006978DF822504B
:1042E00006A8FFF72BFAF16897FAA7F0B0FA80F06A
:1042F0004200032000FA02F2914397FAA7F2B2FAC1
:1043000082F2520004FA02F21143F160316897FA26
:10431000A7F2B2FA82F252009040814397FAA7F0D6
:10432000B0FA80F0420004FA02F0014331600E4816
:104330000068C0F30220011D072901D2002000E01F
:10434000C01E0A498440200181F80004074924392D
:10435000C1F800A10AB0BDE8F087000000080048DD
:1043600000040048080001400CED00E028E000E0F7
:10437000134810B511490160124941600021012222
:10438000C0E90212016141618161C1610162FDF711
:104390002DFE08B1FCF7CCFA00210948FDF7D2FD4B
:1043A00008B1FCF7C5FA00210548FDF7F6FD002825
:1043B00003D0BDE81040FCF7BBBA10BD005400406C
:1043C000E4000020EC9D9030124810B510490160C7
:1043D0004FF48271416000214FF4E062C0E90212A3
:1043E0004FF400720161C0E905121822C0E90721EB
:1043F00007224162C0E90A12016308214163FEF706
:10440000F2F8002803D0BDE81040FCF791BA10BDC7
:10441000003800403001002010B586B014216846F5
:10442000FCF757F84FF40030FFF75EF913480068C7
:104430000022C0F30220114600F090FB0146192033
:1044400001F027FB192001F017FB1820ADF8000040
:10445000002040F2E731CDE90101094C03900490BE
:1044600069462046FFF7FCFA206820F080002060B3
:10447000206840F00100206006B010BD0CED00E0A7
:104480000044014030B59FB014211AA8FCF721F870
:1044900020210CA8FCF71DF830216846FCF719F81C
:1044A000182114A8FCF715F84FF48020FFF71CF929
:1044B0009F20ADF86800002442F20F70CDE91B4048
:1044C000264D1D941AA928461E94FFF7C9FA28689C
:1044D00020F08000286001212846FFF751FB602072
:1044E000CDE90C040E940F941094119412940CAA1C
:1044F000012128461394FFF77DFB01212846FFF791
:1045000005FB00946814CDE9040401948DF80C4077
:104510000294ADF80E40694628460B94FFF75CFA0A
:10452000286840F001002860286A40F001002862F5
:10453000686C40F4004068640220FFF7BDF868151D
:1045400014900220CDE915040120CDE9184014A9EA
:1045500017940348FFF794F91FB030BD004801409D
:104560000004004870B594B014210EA8FBF7B1FF09
:1045700020216846FBF7ADFF182108A8FBF7A9FF2B
:104580000120FFF7A5F842480024D0F8001821F0D8
:10459000FF0141F03A01C0F800183E490A788258FC
:1045A00044F210039A430B7842F01002C2500A788A
:1045B00082580B7822F4405242F48052C2500A785A
:1045C00082580B7842F02002C2500A7882580B7849
:1045D00022F04002C2500A7882580B7842F08002E2
:1045E000C2500A7882580B7822F4407242F400726A
:1045F000C2500A7882580B7822F4406242F400627A
:10460000C250234A0978083223488850ADF8384010
:10461000C720CDE90F40D5060EA928461194FFF713
:104620001FFA286820F080002860AE153146284621
:10463000FFF7A6FA6020CDE90004029403946A46CD
:10464000314628460494FFF7D5FA31462846FFF74D
:104650005DFA6868114908406860A86820F0800029
:10466000A860E86840F40060E860EC630220FFF7AF
:1046700023F8281508900220CDE909040120CDE98E
:104680000C4008A90B940648FFF7FAF814B070BD67
:1046900000000240367E00083C0000408FFFFFFD16
:1046A0000004004810B586B014216846FBF711FFDE
:1046B0001020FFF70DF8174800680022C0F3022011
:1046C000022100F04BFA0146362001F0E2F93620D3
:1046D00001F0D2F90F20ADF800000020019040F267
:1046E000E7300D4C029069462046FFF7B9F9206883
:1046F00020F0800020606068084908406060A06881
:1047000020F08000A060206840F00100206006B02A
:1047100010BD00000CED00E0001000408FFFFFFD19
:1047200010B586B014216846FBF7D3FE2020FEF7B3
:10473000CFFF174800680022C0F30220032100F0D9
:104740000DFA0146372001F0A4F9372001F094F961
:104750009F20ADF800000020019040F2E7300D4CA2
:10476000029069462046FFF77BF9206820F0800020
:1047700020606068084908406060A06820F0800000
:10478000A060206840F00100206006B010BD00006D
:104790000CED00E0001400408FFFFFFD184810B53D
:1047A000164901604FF416414160002181600C22DE
:1047B000C160C0E904128161C1610162416281622C
:1047C000FEF766FC08B1FCF7B3F800210C48FEF7D1
:1047D000C5FA08B1FCF7ACF800210948FEF798FAD1
:1047E00008B1FCF7A5F80648FEF771FA002803D0D7
:1047F000BDE81040FCF79CB810BD0000004400402C
:10480000940100202DE9F04F85B04FF4C851444881
:10481000FCF776FD42481830FCF7FCF9414B0FCB12
:104820008DE80F003E4869461830FCF78FFA3C4887
:104830001830FCF7FFF93C4F002680213E80B81C61
:10484000FBF725FE07F1820080210490FBF71FFE95
:1048500007F5817080218346FBF719FE5FF00004A5
:1048600002F09AF91420FFF76BFA641CA4B2402CF2
:10487000F6D33C460025DFF8B480DFF8B4904FF45F
:10488000004A2C4F02F088F9B8F90000514600F5B3
:1048900080428A4203D904EB4500468002E004EBE3
:1048A00045025080B9F9000000F580428A4204D9DF
:1048B00004EB4500A0F8826003E004EB4502A2F897
:1048C0008200B7F9000000F58042524504D904EB9C
:1048D0004500A0F8026103E004EB4501A1F80201E4
:1048E0000F20FFF72DFA6D1CADB2402DCAD30C4A34
:1048F0004021103AA01C02F0A2F8094A40210E3AC9
:10490000049802F09CF8064A40210C3A584602F0FE
:1049100096F86420FFF714FA05B0BDE8F08F0000A8
:1049200034040020587F000884020020400000204A
:10493000440000204200002030B57C482DED068B5D
:1049400085B0016911F0010F7DD06FF001010161A7
:1049500002F022F97648B0F900207648B0F900104C
:104960007548B0F9000000F095FB7448B0F90000FC
:104970009FED738A734D744C102802DA84ED058A1A
:104980000DE002F06BF9B4F9200095ED001A00EE8D
:10499000900AF8EEE00A00EEC10A84ED050A6748C5
:1049A000001FB0F90000102802DA84ED038A0DE040
:1049B00002F01CF9B4F91C0095ED001A00EE900A03
:1049C000F8EEE00A00EEC10A84ED030A5B48801E9F
:1049D000B0F90000102802DA84ED048A0DE002F03C
:1049E00021F9B4F91E0095ED001A00EE900AF8EED8
:1049F000E00A00EEC10A84ED040A02F04BF984EDEE
:104A0000060A02F075F884ED000A02F08DF884EDD4
:104A1000010A02F0A5F884ED020AD4ED03AA94ED90
:104A200004AAD4ED058AD4ED009A94ED019AB0EE73
:104A3000408A142245496846FBF7F7FC434D103D78
:104A400005F1240000E06DE0D0EC061AB0EE681A23
:104A5000F0EE4A0AB0EE6A0A95E80F00FCF7A2FBF6
:104A6000F0EE40AAB0EE60AAF0EE418A142205F101
:104A70004C016846FBF7D9FC05F160003C35D0ECF1
:104A8000061AB0EE481AF0EE490AB0EE690A95E847
:104A90000F00FCF787FB2C48F0EE409AB0EE609ACE
:104AA000B0EE418AB0EE681AF0EE4A0AB0EE6A0A39
:104AB0002C30FCF73FFC24489FED253AF0EE482AC5
:104AC000B0EE492AF0EE691A4430FCF74BFB1E4861
:104AD0004430FCF79AF8FCF777FC1B4DA835A5F19C
:104AE000640085EC030A2C3DFCF714F8A5F13800AE
:104AF000383585EC030A383DFCF75FF84435154836
:104B000085EC030A80EC030A00F57E7094ED030A3D
:104B100080ED8B0A94ED040A80ED8C0A94ED050A71
:104B200080ED8D0A05B0BDEC068B30BD0044014020
:104B30004200002044000020400000205A000020D5
:104B4000000000004800002008040020C07E00088B
:104B50000AD7233964050020FEE7FEE730B500F0F0
:104B60000703C3F10704042C00D90424181D0728E7
:104B700001D2002300E0DB1E012505FA04F0401EEF
:104B8000084098409D406D1E1540284330BD0000F0
:104B900030B5026A22F001020262036A4468826947
:104BA0001B4D22F003022A400D6823F002032A4322
:104BB0000D692B434D6823F001032B43154DA8428B
:104BC0000BD0154DA84208D0144DA84205D0144D65
:104BD000A84202D0134DA84212D14D6923F0080318
:104BE00043EA85038D6823F0040343EA85038D6956
:104BF00024F480742C43CD6924F4007444EA450401
:104C000044608261C96841630362002030BD0000D6
:104C10008FFFFEFF002C01400034014000400140A6
:104C2000004401400048014030B5026A22F0100201
:104C30000262056A426883691D4C23F44073234075
:104C40000C6843EA042425F020030D6943EA0513A8
:104C50004D6823F0100343EA0513164DA8420BD00C
:104C6000154DA84208D0154DA84205D0144DA842B4
:104C700002D0144DA84213D14D6923F0800343EABA
:104C800085138D6823F0400343EA85138D6922F470
:104C9000806242EA8502CD6922F4006242EAC502DE
:104CA00042608461C96881630362002030BD0000F6
:104CB000FF8FFFFE002C0140003401400040014006
:104CC000004401400048014030B5026A22F480727D
:104CD0000262046A4368C2691C4D22F003022A4042
:104CE0000D6824F400742A430D6944EA05244D68D4
:104CF00024F4807444EA0524154DA8420BD0154DC8
:104D0000A84208D0144DA84205D0144DA84202D0A4
:104D1000134DA84213D14D6924F4006444EA85245C
:104D20008D6824F4806444EA85248D6923F48053DB
:104D300043EA0513CD6923F4005343EA4513436066
:104D4000C261C968C1630462002030BD8FFFFEFFED
:104D5000002C01400034014000400140004401406B
:104D60000048014030B5026A22F480520262056AAE
:104D70004268C3691D4C23F4407323400C6843EA26
:104D8000042425F400530D6943EA05334D6823F4E8
:104D9000805343EA0533164DA8420BD0154DA84267
:104DA00008D0154DA84205D0144DA84202D0144D8C
:104DB000A84213D14D6923F4004343EA85338D683B
:104DC00023F4804343EA85338D6922F4804242EA2A
:104DD0008512CD6922F4004242EAC5124260C461E4
:104DE000C96801640362002030BD0000FF8FFFFE30
:104DF000002C0140003401400040014000440140CB
:104E00000048014070472DE9F843044640684FF4DC
:104E10008276154689464FF400474FF48068B042C9
:104E200009D1A068B84201D0404504D1206801688A
:104E300021F0400101604B46002280212046009570
:104E400000F0CAF880B96068B04214D1A068B842D6
:104E500001D040450FD14B4600224FF4C06120469F
:104E6000009500F049F830B1206E40F02000206637
:104E70000320BDE8F8830020FBE7F8B515460E4691
:104E80000B460092044600224FF4C05100F034F863
:104E900088B93346002280212046009500F09CF816
:104EA00048B9334600224FF4C0612046009500F017
:104EB00023F8002804D0206E40F020002066032054
:104EC000F8BD13B582B0044600208DF804002046DA
:104ED000FDF786FB0528FAD0FF200090012301AAE8
:104EE00003A92046FDF7AEFD10B1FF2004B010BDB0
:104EF0009DF80400FAE700002DE9FE4F4FF0000A8C
:104F0000984617460E4604460C9D8DF804A0FDF702
:104F100013F8411BA8EB0105FDF70EF88146206848
:104F20004FF4C06B0C3002902A480068C0EBC00000
:104F300000EB8000000D6843009043E05E4506D121
:104F40002FB9029800788DF804009DF80400B8F19C
:104F5000FF3F37D0FCF7F0FFA0EB0900A84203D2D7
:104F600015B1009858B32BE02068416821F0E001AA
:104F700041606068B0F5827F0BD1A068B0F5004F4A
:104F800002D0B0F5806F04D12068016821F04001A3
:104F90000160A06AB0F5005F09D12068016821F4C2
:104FA000005101602068016841F400510160012056
:104FB00084F85D0084F85CA00320BDE8FE8F002526
:104FC000401E0090206880683040B842B6D1002072
:104FD000F3E700001C0000202DE9F8431E4691462F
:104FE00088460446089DFCF7A7FF401B351AFCF7CE
:104FF000A3FF074625480068C0F3CB30684338E07C
:10500000701C37D0FCF798FFC01BA84203D215B123
:10501000009860B32CE02068416821F0E001416015
:105020006068B0F5827F0BD1A068B0F5004F02D068
:10503000B0F5806F04D12068016821F04001016063
:10504000A06AB0F5005F09D12068016821F4005121
:1050500001602068016841F400510160012084F87A
:105060005D00002084F85C000320BDE8F883002583
:10507000401E00902068816838EA010004D00021B9
:105080004945BDD10020F0E70121F9E71C000020CF
:105090007047000070B506462F4814460D46818BB8
:1050A0002E4A711A1180C18B921C691A1180008CD2
:1050B000911C201A0880891C0122881F01F0AEFC77
:1050C000264901220831881F01F0A8FC234901224A
:1050D0000A31881F01F0A2FC2048214B801DB0F945
:1050E0000000102803DA188803EB400046801B48B4
:1050F0000830B0F90000102804DA188803EB4000EB
:10510000A0F8825015480A30B0F90000102804DADF
:10511000188803EB4000A0F802411888401C80B2B8
:105120001880402801D3002018800B4A40212232E9
:10513000981C01F084FC084A40212432A2F59370A7
:1051400001F07DFC044ABDE8704026324021A2F106
:10515000A80001F074BC00000804002050000020EA
:1051600084020020FDF748B9304810B5016821F0ED
:105170000F0141F004010160016801F00F010429F1
:10518000FAD12B4850F8801F21F480710160294C1E
:10519000206840F4803020602068C0F34040002840
:1051A000FAD0E16842F60300234A11400843E06068
:1051B000E06840F08070E060206840F0807020601F
:1051C0002068C0F340600028FAD0A06840F00300D7
:1051D000A0608020FEF7F0FBA06800F00C000C2817
:1051E000FAD11648016841F08071016014480168E5
:1051F00041F0010101600021416041686429FCD354
:105200000020FEF7D9FBA06820F4E060A060A06851
:1052100020F46050A0600B48FEF7D8FB0F20FDF78C
:1052200003F9002801D072B6FEE710BD002002404D
:1052300000700040001002400C80FFF9FCED00E01F
:10524000001000E0006889090248016841F470011B
:105250000160704788ED00E0FFF76EBB154810B5A0
:10526000016911F0010F24D06FF001010161124CAE
:105270006088401C6080A088401C80B2A080052807
:1052800003D3FBF7C7FB0020A080A0684FF47A711E
:10529000401CB0FBF1F2A06001FB1200002808D115
:1052A0002078002805D1FBF70BFABDE8104001F08B
:1052B000D3BD10BD00100040040000200548016966
:1052C00011F0010F04D06FF00101016100F03AB854
:1052D000704700000014004010B5174C154B41F604
:1052E0005831A3806180154A04F11800E280C3811F
:1052F000018242822C2020811148806902F020FD29
:1053000041EC100B01F080F951EC100B02F0C8FADF
:10531000608142F21C50208240F2DC50608204F135
:105320001800616901F099FBBDE810403220FEF7DA
:1053300007BD0000E0B1FFFFA00B002030F8FFFF29
:10534000080400202DE9F0412948806902F0F8FCAA
:1053500041EC100B01F058F951EC100B02F0A0FADF
:10536000244948810A89101A04B2CC81012C01DD3C
:10537000012300E00023B4F1FF3F01DA012000E047
:10538000002003431C484FF4005201D0826100E02A
:105390008262184A1832B2F9000020FB04F0B2F918
:1053A0000850B2F80AC02E465768C3176CF31F4561
:1053B000C7FBC503B2F90C505681EF03381843EB15
:1053C000E7754FEAD03040EA454000F30F00148102
:1053D0009081B1F91030984203DCB1F91230984253
:1053E00000DA93819089088004490860BDE8F08163
:1053F00008040020A00B00200008004834480140A9
:1054000030B5416EB9B1026891689268C1F34261EA
:105410000B4B520F9C5CE50003F10804A25CB5FB4A
:10542000F2F2A0F86A205A5C615CD200B2FBF1F1A2
:10543000A0F8681030BD0121A0F86A10F8E700005C
:10544000787E000890F82810C90706D001684A68DD
:10545000C36A22F400321A434A6090F82810890780
:1054600006D501684A68036B22F480321A434A6009
:1054700090F82810490706D501684A68436B22F462
:1054800080221A434A6090F82810090706D501685F
:105490004A68836B22F400421A434A6090F828104D
:1054A000C90606D501688A68C36B22F480521A4384
:1054B0008A6090F82810890606D501688A68036C0E
:1054C00022F400521A438A6090F82810490611D538
:1054D00001684A68436C22F480121A434A60416CA6
:1054E000B1F5801F06D101684A68836C22F4C002BE
:1054F0001A434A6090F82810090606D501684A68E0
:10550000C06C22F4002202434A607047F8B50026BE
:105510000446C0F88C60FCF70FFD05462068006863
:105520006FF07E47000708D52B4600224FF400118C
:105530002046009700F0EEF960B920680068400747
:105540000AD52B4600224FF480012046009700F038
:10555000E1F908B10320F8BD2020C4F88400C4F8A4
:10556000880044F86C6F00202675F8BD10B5806A7D
:105570000021A0F85E10A0F85610FDF717FC10BD32
:1055800070B5846AD4F88400D4F88850216889689A
:105590004FF00006090606D5212804D1A4F856606C
:1055A000204600F065F820688068400606D5222D68
:1055B00004D1A4F85E60204600F030F8D4F88C00E6
:1055C00040F01000C4F88C002046FDF7EFFB70BDE2
:1055D00010B50146806A09680968890616D4002159
:1055E000A0F856100168083151E8002F22F080021F
:1055F00041E80023002BF5D1026852E8001F41F07A
:10560000400142E80013002BF6D110BDFDF720FE4B
:1056100010BD10B5806AFDF727FE10BD10B50268F9
:1056200052E8001F21F4907142E80013002BF6D1DC
:105630000E4B0268083252E8001F194042E800147D
:10564000002CF6D1C16E012908D1016851E8002F64
:1056500022F0100241E80023002BF6D12021C0F8EF
:1056600088100021C166016710BD0000FEFFFFEF3A
:10567000026852E8001F21F0C00142E80013002B2D
:10568000F6D10168083151E8002F22F4000241E808
:105690000023002BF5D12021C0F8841070470000B2
:1056A0002DE9F0410446016880682269E3691043EE
:1056B000626900251A431043DFF82CC20A688B4B3D
:1056C0001A4002430A6020684168E26821F44051B0
:1056D000114341602168A069614501D0226A1043ED
:1056E0008A68834B1A4002438A602068C16A626AF2
:1056F00021F00F011143C1627E4923687E488B422D
:105700000DD1D0F8880010F0030006D0012855D044
:10571000022842D003283FD152E001203DE07749E2
:105720008B420BD1D0F8880010F00C0035D0042843
:1057300033D0082840D00C282ED141E070498B424C
:105740000BD1D0F8880010F0300026D0102835D0CA
:10575000202831D030281FD132E06A498B420BD14A
:10576000D0F8880010F0C00017D0402826D080283C
:1057700022D0C02810D123E063450DD1D0F8880095
:1057800010F4406009D0B0F5806F17D0B0F5006F0D
:1057900012D0B0F5406F13D010205B495B4F00264C
:1057A0004FF4004263453BD160B1022813D0042876
:1057B0000BD0082872D10DE00220EEE70420ECE7C0
:1057C0000820EAE7FCF7B2FE01E0FCF7D3FE010097
:1057D00001D17CE01146606A37F810206768B1FBA0
:1057E000F2F007EB4703834270D8B0EB073F6DD868
:1057F000002308461946FAF75FFD090241EA1061E5
:1058000002027808101871413A460023FAF754FD55
:105810003F4AA0F54071914258D82168C86056E0CF
:10582000E3694FF6EF7893422CD109284ED2DFE896
:1058300000F00508114D0D4D4D4D1000FCF776FEA2
:1058400001E0FCF785FE010004D140E0FCF792FE88
:10585000F9E71146606A37F81000B1FBF0F041003B
:10586000606801EB5001B1FBF0F0A0F1100141457F
:105870002CD84FF6F0710140C0F34200014320687C
:10588000C16024E0092821D2DFE800F005091220D8
:105890000E2020201100FCF749FE02E016E0FCF784
:1058A00057FE010004D112E0FCF764FEF9E711464F
:1058B000606A37F81000B1FBF0F1606801EB50014D
:1058C000B1FBF0F0A0F1100141450AD901250120FA
:1058D000A4F86A0024F8680F2846A660E660BDE8D0
:1058E000F08180B299E7000000800040F369FFCFAB
:1058F000FFF4FF1100380140001002400044004056
:1059000000480040004C00400024F400607E000885
:10591000FFFC0F002DE9F0479A4617460E46044655
:105920004FF000094FF02008089D4AE0681C48D05D
:10593000FCF702FBA0EB0A00A8422AD84DB320686E
:10594000016849073DD5C069C043000539D42168C5
:105950004FF400600862206850E8001F21F4D07105
:1059600040E80012002AF6D12068083050E8001FF5
:1059700021F0010140E80012002AF5D144F8848F9B
:10598000C4F80480C4F8088004F8049C0320BDE82F
:10599000F087216851E8000F20F4D07041E8000240
:1059A000002AF6D12068083050E8001F21F00101DC
:1059B00040E80012002AF5D144F8848FC4F804802E
:1059C000E2E72068C06936EA000004D00020B8424F
:1059D000ACD00020DBE70120F9E700000148FDF72B
:1059E000E7B90000940100201FB5164800241022DA
:1059F00090ED000AD0ED020A6946B1EE401A90ED32
:105A0000010A8DED001AF1EE600AB1EE400A8DED4B
:105A1000010ACDED020A8DF80C408DF80D40802072
:105A20008DF80E007F208DF80F000748FDF7BEFBB4
:105A300008B1FAF77DFF054801780129FCD104700F
:105A40001FBD0000D40400209401002000000020AD
:105A5000FEE74100080218BF04200A0E18BF40F0FC
:105A600001004FF07F4232EA010108BF40F002001E
:105A7000012808BF05207047002809DB00F01F023D
:105A8000012191404009800000F1E020C0F80011A0
:105A900070470907090E002804DB00F1E02080F8B8
:105AA0000014704700F00F0000F1E02080F8141D92
:105AB00070470907090E002804DB00F1E02080F898
:105AC0000014704700F00F0000F1E02080F8141D72
:105AD0007047000010B54FF00E402DED028BB0EE78
