:020000040800F2
:10000000800D00209D010008E3220008E321000884
:10001000E1220008A5070008E9250008000000000B
:10002000000000000000000000000000E7220008BF
:100030009F08000800000000E5220008E9220008EF
:10004000B7010008B7010008B7010008B7010008B0
:10005000B7010008B7010008B7010008B7010008A0
:10006000B7010008B7010008B7010008B701000890
:10007000B7010008B7010008B7010008B701000880
:10008000B7010008B7010008B7010008B701000870
:10009000A9070008B5070008C1070008B701000854
:1000A000B7010008B7010008B7010008B701000850
:1000B000B7010008B7010008B7010008B701000840
:1000C000B7010008B7010008B7010008B701000830
:1000D000B7010008B7010008B7010008B701000820
:1000E000B7010008B7010008B7010008B701000810
:1000F000B7010008B7010008B7010008B701000800
:10010000B7010008B7010008B7010008B7010008EF
:10011000B7010008B7010008B701000891230008E3
:10012000B7010008B7010008B7010008B7010008CF
:10013000B70100080000000000000000B70100083F
:10014000B7010008B7010008B7010008B7010008AF
:10015000B7010008B7010008B7010008B70100089F
:10016000B7010008B7010008B7010008B70100088F
:10017000B7010008B70100080000000000000000FF
:10018000B7010008B7010008DFF80CD000F0F8FA5A
:100190000048004775260008800D0020064880476B
:1001A00006480047FEE7FEE7FEE7FEE7FEE7FEE75C
:1001B000FEE7FEE7FEE7FEE781230008890100086D
:1001C0002DE9F05F0546002092469B46884606468C
:1001D000814640241BE0284641464746224600F01F
:1001E00050FA53465A46C01A914110D31146184648
:1001F000224600F037FA2D1A67EB01084F462246D7
:100200000120002100F02EFA17EB00094E41201EBC
:10021000A4F10104DFDC484631462A464346BDE8E6
:10022000F09F40EA01039B0703D009E008C9121FB1
:1002300008C0042AFAD203E011F8013B00F8013BA0
:10024000521EF9D27047D2B201E000F8012B491ECC
:10025000FBD270470022F6E710B513460A46044663
:100260001946FFF7F0FF204610BD2DE9FE4F8046EE
:1002700081EA0300C00F0C46009021F0004123F0FA
:100280000045B8EB0200A94105D240462146904600
:100290001C460B46024623F00040104347D0270D72
:1002A000C7F30A00C3F30A510290401A0190402894
:1002B0006BDAC3F3130040F4801B0098924620B120
:1002C0000023D2EB030A63EB0B0B01985946C0F1F4
:1002D0004002504600F0C6F906460D4650465946C3
:1002E000019A00F0DEF910EB08006141002487EA72
:1002F000115284EAE7731A4340D0009A62B3019A1C
:10030000012A4FEA075215DC001B61EB02014FF096
:10031000004202EA0752CDE90042001C41F580117B
:1003200032462B4600F0DEF903B0BDE8F08F4046C0
:100330002146F9E7001B61EB0201001C41F5801327
:1003400000185B412018A2F5001747EB030140EAB3
:10035000D570B6196D4111E06D084FEA360645EAD1
:10036000C0754FEA0752001B61EB0201001C41F50A
:10037000801149084FEA30000019514132462B469E
:1003800003B0BDE8F04F00F09EB900980122400094
:100390000023D0EB020263EBE073009821464FEAA2
:1003A000E074B8EB000061EB0401E9E783F000437F
:1003B0005BE781F0004158E72DE9FE4F81EA030435
:1003C00004F0004421F0004100944FF0000B23F0B2
:1003D000004350EA01045ED052EA03045BD0C3F349
:1003E0000A54C1F30A552C44A4F2F3340194A0FB3F
:1003F0000254C1F3130141F48011C3F3130343F416
:10040000801301FB024400FB034E840A970A44EA6E
:10041000815447EA8357A4FB076802958D0A05FBC0
:1004200007854FEA932C04FB0C542705029D4FEAE5
:10043000065847EA1637B5EB08056EEB070C870E32
:10044000920E47EA811742EA8312A7FB0201B6EB3C
:100450000B0164EB00042B0D43EA0C335E1844EBF4
:100460001C50DA465146E7FB0201C5F313044FEA7C
:100470000B3343EA14534FEA0432019C43EA060368
:10048000A4F10C040294009CCDE900B400F02AF918
:1004900003B0BDE8F08F00200146F9E72DE9F04DEB
:1004A00081EA030404F0004B21F0004514464FF0AC
:1004B000000A23F0004150EA050220D054EA01026C
:1004C0001DD0C5F30A570246C5F31303C1F3130049
:1004D000C1F30A5640F4801543F48013A7EB0608D5
:1004E000101BD64608F2FD3873EB050002D308F165
:1004F000010801E092185B41B8F1000F03DA002017
:100500000146BDE8F08D00204FF480110646844678
:100510000EE0171B73EB050705D3121B63EB0503F6
:1005200006434CEA010C49084FEA300092185B413F
:1005300050EA0107EDD152EA030012D082EA04002A
:1005400083EA0501084305D0101BAB4106D2012206
:10055000002306E000224FF0004302E06FF00102AA
:1005600053101AEB06004CEB085110EB0A0041EB5C
:100570000B01BDE8F04D00F0A6B80EB5C10F80EA42
:10058000E0700844CA07002140F233438DE80E00B2
:100590000A460B4600F0A6F803B000BD3EB5CA17E8
:1005A000CB0F002450405140C0186141DA0740F29F
:1005B00033430094CDE901232246234600F092F80C
:1005C00003B030BD70B5C1F30A5201F000450024FC
:1005D000C1F3130140F2FF3341F480119A4201DA72
:1005E000002070BD40F233439A42A2F2334203DC52
:1005F000524200F046F800E090402C43F1D04042D7
:1006000070BD000030B5041E71F1000404DB4FF032
:100610000044404264EB0101141E73F1000405DB49
:100620001C464FF00043524263EB04038B4208BF69
:10063000824230BD30B5041E71F1000404DB4FF07E
:100640000044404264EB0101141E73F1000405DB19
:100650001C464FF00043524263EB0403994208BF2B
:10066000904230BD202A04DB203A00FA02F100203B
:1006700070479140C2F1200320FA03F319439040E0
:100680007047202A04DB203A21FA02F0002170474B
:1006900021FA02F3D040C2F12002914008431946EA
:1006A0007047202A06DBCB17203A41FA02F043EAD2
:1006B000E07306E041FA02F3D040C2F1200291401B
:1006C00008431946704710B5141E73F1000408DA88
:1006D000401C41F1000192185B411A4301D120F006
:1006E000010010BD2DE9F04D92469B4611B1B1FAC3
:1006F00081F202E0B0FA80F220329046FFF7B2FFBA
:1007000004460F4640EA0A0041EA0B0153465A46A6
:10071000084313D0114653EA010019D0C8F1400232
:100720005046FFF7AEFF05460E4650465946424634
:10073000FFF798FF084305D0012004E02046394622
:10074000BDE8F08D0020054346EAE0762C433743B0
:100750000A986305E40AA0EB08000022FD0A44EAB7
:1007600047540A3002D500200146E9E70105101977
:100770006941DDE9084500196941BDE8F04DA2E78E
:10078000064C074D06E0E06840F0010394E80700DE
:1007900098471034AC42F6D3FFF7FAFCBC270008A8
:1007A000DC270008FEE70000014800F028BC00003C
:1007B000A0080020014800F022BC0000A008002092
:1007C000014800F01CBC0000A008002030B58BB030
:1007D00000220121CDE90621144B009201920292E0
:1007E0000392044600681B68984205D10492059262
:1007F00008910225099109E00D4A1268904212D130
:100800000F20CDE90410CDE90810102569462046D7
:1008100000F0E4FA204600F039FE2946204600F0B8
:1008200067FA0BB030BD0120FBE70000A0080020F4
:10083000C8080020F0B587B006460C98049001F077
:10084000020003901D46C80703D00420CDE9012013
:1008500002E000200092029000F044FF04464FF4B2
:100860007A7707E000F03EFF001BB84202D9032070
:1008700007B0F0BD304600F0ACFB0028F2D00223F8
:100880002A466946304600F045FAF1E708B50823E4
:10089000009313460A460021FFF7CCFF08BD7047BE
:1008A00072B6FEE770B50D46014602EB820000EB22
:1008B0004212084800EBC204A4F588708822FFF7B2
:1008C000B0FCA4F188002946BDE870408822FFF7FB
:1008D000A8BC000028000020014908607047000003
:1008E0000000002010B504462DED088BB0EE40AAA4
:1008F000F0EE60AA9FED8B8B90ED000B53EC1A2B62
:1009000051EC100BFFF752FD41EC190B84ED029BEB
:1009100094ED040B53EC102BFFF748FD94ED061BF0
:1009200053EC112BFFF7BAFDC4E90E0153EC182B61
:1009300051EC190BFFF77EFE94ED020B05D351EC41
:10094000100B81F0004141EC100B94ED161B51ECA3
:10095000100B53EC112BFFF755FE10D894ED061B2E
:1009600094ED020B53EC112B51EC100BFFF724FD0F
:1009700094ED101B53EC112BFFF777FC09E094ED7D
:10098000100B9FED6A1B51EC100B53EC112BFFF772
:1009900085FDC4E9100194ED020B53EC182B51ECCA
:1009A000100BFFF72FFE0ED094ED041B94ED020BFD
:1009B00053EC112B51EC100BFFF7FEFC53EC182BF2
:1009C000FFF720FE0BD294ED0E0B9FED5A1B51EC5E
:1009D000100B53EC112BFFF7EFFCC4E90E0194ED63
:1009E0000A8B94ED120B53EC182B51EC100BFFF704
:1009F000E3FC94ED100B41EC190B53EC182B51EC6C
:100A0000100BFFF7D9FC53EC192BFFF713FE04D2A0
:100A100094ED0A0B94ED121B25E094ED0A8B94EDF6
:100A2000140B53EC182B51EC100BFFF7C5FC94ED95
:100A3000100B41EC190B53EC182B51EC100BFFF77A
:100A4000BBFC53EC192BFFF7DDFD08D294ED0A1B1C
:100A500094ED140B53EC112B51EC100B07E094EDBB
:100A60000A0B94ED101B53EC102B51EC110BFFF7FC
:100A7000A3FC94ED0A8B53EC182BFFF70FFD41EC10
:100A8000190B84ED109B94ED0E1B94ED0C0B53ECA5
:100A9000112B51EC100BFFF78FFC41EC1B0B53ECAF
:100AA000192B51EC180BFFF787FC94ED021B94ED0A
:100AB000080B41EC180B53EC112B51EC100BFFF70A
:100AC0007BFC53EC182BFFF7D0FB53EC1B2BFFF7F1
:100AD000CCFB41EC100B84ED1A0B94ED1C1B53EC7A
:100AE000112BFFF7A7FD02D294ED1C0B0FE094ED44
:100AF0001E1B94ED1A0B53EC112B51EC100BFFF74E
:100B000081FD02D294ED1E0B01E094ED1A0B84EDF1
:100B10001A0B84ED20AB94ED021B84ED041BBDEC9D
:100B2000088B10BD00000000000000009A99999900
:100B30009999F13F0000000000002440F0B50B88B7
:100B4000A0F205225CBA02EB820303EB42151B4BB9
:100B5000104623F835404C8866BA03EBC50466801E
:100B60008E8876BAA6808979A17103F6580633F982
:100B7000355056F822106F1A03F6180101EBC00128
:100B8000B7F5805FD1E9000304DB0D4FC71943F1CE
:100B9000FF3007E017F5805F06DC41F6FF77C719E5
:100BA00043F10000C1E9007046F82250D1E900206D
:100BB000521940EBE570C4E90220F0BD2800002086
:100BC00001E0FFFF70B50D46491E2DED028B072990
:100BD00003D3BDEC028B012070BDFFF7CEFC05EB0B
:100BE000850202EB4513184A02EBC30444E92201D3
:100BF000A4F58050A4F58051D0F8E80ED1F8EC1E91
:100C0000FFF7CCFC41EC180BA4F58050A4F5805103
:100C1000D0F8E00ED1F8E41EFFF7C0FC53EC182B1F
:100C2000FFF7C4FB41EC100BA4F18800FFF75AFE5C
:100C300051EC100BFFF7C6FCBDEC028B2946BDE85A
:100C4000704000F02DB80000280000204A1E072A3E
:100C500001D30120704701EB810303EB4111064BE7
:100C6000C21703EBC101A1F580531946C3F8E80E82
:100C70000020C1F8EC2E70472800002000EB800116
:100C8000064A01EB401102EBC101A1F58051D1F8F8
:100C9000E02E01461046FFF7D9BF000028000020D3
:100CA000124A30B4146864B147F23052904202DC08
:100CB0005242904200DA1046042905D840F2FF1350
:100CC00006E030BC01207047091F40F2FF23C9B283
:100CD000064A050A121D02EB410101F8025D487047
:100CE000204630BC1946FFF7D1BD000000000020AF
:100CF00090F82020012A07D0022A05D0416A41F449
:100D00008021416201207047006842690A434261C4
:100D100000207047F0B590F820500468A468012DB9
:100D200005D0022D03D0416A41F4802153E014F034
:100D3000406F01D1E5004BD5C4F30164022C03D907
:100D4000416A41F4000146E00125A5401D608D681F
:100D50004FF4C0739DB1CE6835434E6845EAC60571
:100D6000066803EB0417F5514FF4C275076805EBED
:100D700004150E697E51097D012905D009E00E8810
:100D8000CD6845EA4655EBE701684E5946F4807652
:100D90004E511179D2F805504FF4C67641EA052537
:100DA000016806EB04168D511178D2F801204FF43A
:100DB000C47541EA0221026805EB0415515100682F
:100DC00003EB0411425842F0010242500020F0BDF2
:100DD000416A41F4001141620120F0BD10B590F864
:100DE0002020012A07D0022A05D0416A41F480213F
:100DF0004162012010BD3B48D0F8002242F00102C0
:100E0000C0F80022D0F8002222F47C52C0F8002260
:100E1000D0F800224B6A42EA0322C0F800220A7D81
:100E200002F01F0301229A40D0F81C329343C0F80D
:100E30001C32CB69B3B9D0F80C329343C0F80C32F2
:100E40008C894B6864F31F434C6900EBC404C4F8FD
:100E500040320C890B6864F31F434C6900EBC404F7
:100E6000C4F84432CB69012B16D1D0F80C321343AD
:100E7000C0F80C320C884B6864F31F434C6900EBDC
:100E8000C404C4F840320C89CB6864F31F434C6936
:100E900000EBC404C4F844328B69002BD0F8043250
:100EA0000ED01343C0F804320B69002BD0F8143273
:100EB00008D01343C0F81432096A012904D008E0AD
:100EC0009343EFE79343F5E7D0F81C121143C0F8C2
:100ED0001C12D0F8001221F00101C0F8001200200D
:100EE00010BD000000640040704730B590F820400D
:100EF000012C05D0022C03D0416A41F480215DE031
:100F00000468002955D02469A40754D04FF4D8743C
:100F1000056804EB01142D5915F00405956005686A
:100F20002D594ED0ED08556005682C5904F0020487
:100F3000D4604FF4DA74056804EB01142D5905F000
:100F40000F05156105682D59C5F3072595610568DD
:100F50002C59240C54614FF4DC72046802EB01122A
:100F6000A4581C700468A458240A5C700468A4582F
:100F7000240C9C700468A258120EDA704FF4DE72D2
:100F8000046802EB0112A4581C710468A458240AD6
:100F90005C710468A458240C9C710468A258120E59
:100FA000DA71006881B1016941F02001016100201E
:100FB00030BDE468A8E7416A41F4001141620120B4
:100FC00030BD6D0D1560AFE7C16841F02001C16013
:100FD000EDE70246002092F82010012901D00229F5
:100FE0000CD111688A68520100D501208A6812016B
:100FF00000D5401C8968C90000D5401C70472DE908
:10100000F05F0546006800244669D0F804908768C0
:10101000D0F80CB0D0F810A0D0F81880F10748D064
:10102000F90714D001218160B80703D5284600F0E4
:101030005AFA0CE0780702D54FF4006407E038074D
:1010400002D54FF4805402E0284600F04BFAF80530
:1010500016D529684FF480708860B80503D52846F6
:1010600000F043FA0CE0780502D544F4005407E0A0
:10107000380502D544F4804402E0284600F034FAF2
:10108000F80316D529684FF480308860B80303D57B
:10109000284600F02CFA0CE0780302D544F4004412
:1010A00007E0380302D544F4803402E0284600F01B
:1010B0001DFA300707D55FEACB6004D529681020F8
:1010C00044F40074C86070074FF0080707D55FEA62
:1010D0000B7004D52868C760284600F0A5F9B00752
:1010E00006D52868C068800702D0284600F09EF91F
:1010F000700607D55FEACA6004D52968102044F459
:1011000080640861B00607D55FEA0A7004D52868D4
:101110000761284600F0B6F9F00606D52868006990
:10112000800702D0284600F0AEF9B00308D55FEA88
:10113000C96005D5296810204860284600F0A4F948
:10114000F00307D55FEA097004D528684760284690
:1011500000F0CEF9300446D55FEA497040D5F0057D
:1011600004D55FEAC87001D044F00104B00504D58D
:101170005FEA887001D544F00204700504D55FEA87
:10118000487001D544F00404300529D518F0700FDB
:1011900026D008F07000402815D006DC102809D0B1
:1011A00020280AD0302816D10AE050280ED0602816
:1011B00011D10EE044F008040DE044F010040AE000
:1011C00044F0200407E044F0400404E044F08004CC
:1011D00001E044F480742868816921F07001816124
:1011E000296804204860002C05D0686A20436862A2
:1011F0002846FFF779FEBDE8F09F70B5040003D0E4
:1012000094F8200010B104E0012070BD204600F0E9
:1012100081F82068016841F00101016000F062FA84
:101220000546052604E000F05DFA401B0A2811D8A7
:1012300020684068C007F6D02068016821F00201EC
:10124000016000F04FFA05460BE000F04BFA401B3E
:101250000A2806D9606A40F40030606284F8206091
:10126000D2E7206840688007EFD4207E01282068FC
:1012700001683DD021F080010160607E0128206876
:10128000016838D021F040010160A07E012820686B
:10129000016833D021F020010160E07E0128206840
:1012A00001682ED041F010010160207F01282068E4
:1012B000016829D021F008010160607F01282068C1
:1012C000016824D021F004010160D4E9020108433F
:1012D000D4E90412114308436168491E0843216898
:1012E000C86100206062012084F82000002070BDE9
:1012F00041F08001C0E741F04001C5E741F0200125
:10130000CAE721F01001CFE741F00801D4E741F02E
:101310000401D9E7F0B587B0044614216846FEF70A
:1013200099FF3C4B3C48DFF8E8E01968D4F800C06E
:10133000394A02250326092710300024491CF445A8
:1013400037D11960012907D1016841F000710160AE
:10135000006800F000700590106840F00100106017
:10136000106802AB00F0010005904FF4C050CDE9C9
:10137000000583E8D0006946284800F0BBF8002249
:101380001146142000F048FA142000F037FA002229
:101390001146152000F040FA152000F02FFA002227
:1013A0001146162000F038FA162000F027FA07B090
:1013B000F0BDDFF86CE0F445F9D1D0F800C04CF096
:1013C000806CC0F800C0D0F800C001290CF0806C1F
:1013D000CDF814C0196007D1016841F000710160B7
:1013E000006800F000700590106840F00200106086
:1013F000106802AB00F0020005904FF44050CDE9B8
:10140000000583E8D0006946064800F073F8CEE78F
:10141000006400401000002030380240000002400C
:1014200000680040000402407047000010B5134AF5
:1014300001688AB0126891421ED1002100916B466A
:1014400002AA0191FFF751FD0498002814D10298D7
:10145000A0F2052006280FD869460298FFF76EFB18
:10146000074C206820B90420FFF708FC0120206009
:1014700004218802FFF7A6FB0AB010BDA0080020D7
:101480000C000020704770477047000070B504469C
:1014900090F82000012804D0606A40F400206062C7
:1014A00018E0022084F820002068016821F0010182
:1014B000016000F017F905460EE000BF00F012F9D8
:1014C000401B0A2808D9606A40F400306062052099
:1014D00084F82000012070BD20684068C007EDD16D
:1014E000606270BD704770477047704770477047C3
:1014F000704700002DE9F84FDFF8BCA1002201255C
:1015000003264FF00F090AF1040BAAF1040E00BFE5
:101510000B6805FA02F42340A34270D10F7907F05B
:101520000307012F01D0022F16D187684FEA420826
:1015300006FA08FC27EA0C07D1F80CC00CFA08FCE4
:101540004CEA070CC0F808C04768A7430C79C4F3FD
:10155000001494403C4344600C79E443A4070AD04F
:10156000C4684FEA420C06FA0CF7BC438F6807FACE
:101570000CF72743C7600C7904F00304022C12D146
:10158000D40800EB840CDCF820405707FF0E09FA62
:1015900007F824EA0804D1F8108008FA07F848EAA6
:1015A0000408CCF8208004684FEA420C06FA0CF7D5
:1015B000BC430F7907F0030707FA0CF727430760CE
:1015C0004C6814F4403F70D03C4C276847F4804787
:1015D0002760246822F0030704F480440094384C08
:1015E00007EB040CDCF8084897074FEA177809FA6C
:1015F00008F7BC43334FB84202D1002724E054E03F
:10160000314FB84201D101271EE0304FB84201D11D
:10161000022719E02E4FB84201D1032714E02D4FC5
:10162000B84201D104270FE02B4FB84201D1052762
:101630000AE02A4FB84201D1062705E0284FB842F8
:1016400001D1072700E0082707FA08F72743CCF85D
:101650000878DAF800405746D1F804C09C435FEAA6
:10166000CC2C00D51C433C60DBF800405F46D1F831
:1016700004C09C435FEA8C2C00D51C433C60DEF820
:1016800000407746D1F804C09C435FEA8C3C00D50B
:101690001C433C60084F083F3C68D1F804C09C43A1
:1016A0005FEACC3C00D51C433C60521C102AFFF47E
:1016B0002FAFBDE8F88F0000083C014044380240DD
:1016C00000300140000002400004024000080240D7
:1016D000000C0240001002400014024000180240BA
:1016E000001C024001488068704700001400002080
:1016F000024881680278114481607047140000201C
:101700000B4810B5016841F400710160016841F4B3
:1017100080610160016841F480710160032000F084
:101720009BF80F2000F006F800F050F8002010BDE4
:10173000003C024030B505461F4887B000240168D0
:1017400041F020010160006806A900F0200000902F
:1017500001A800F02DF90498A8B100F049F9400063
:101760001649174AB0FBF1F11648491E026040F2D3
:10177000E732C0E90324C0E90114846100F042FBB0
:10178000040003D015E000F033F9E9E70D4800F05C
:1017900067FB04000DD1372000F030F8102D07D280
:1017A00000222946372000F037F80748056000E09E
:1017B000012407B0204630BD4038024040420F00AF
:1017C0000014004034090020180000200A4808B521
:1017D000016841F480410160006800F4804000909D
:1017E0000548001F016841F080510160006800F069
:1017F0008050009008BD000044380240002809DBFA
:1018000000F01F02012191404009800000F1E0201A
:10181000C0F8001170470000F0B40E4B1B680C4676
:10182000C3F30223C3F10705042D00D90425191DB4
:10183000072901D2002300E0DB1E012606FA05F18C
:10184000491E214099409E40761E16403143F0BC0F
:1018500000F0D4BE0CED00E0064900F00702086875
:101860004FF6FF03184040EA0220034A1043086085
:10187000704700000CED00E00000FA052DE9F0478C
:101880000E46050065D0DFF81481D8F80000F7B2E5
:1018900000F00700B04207D288F80070D8F80000C6
:1018A00000F00700B04254D128683D4C810712D5A2
:1018B000400703D5206840F4E050206028780007F6
:1018C00003D5206840F4604020602068A96820F0BB
:1018D000F000084320602878C0072DD030496868A0
:1018E0000839012812D0022813D0032811D0096822
:1018F000890700292DDA216821F0030101432160C5
:10190000FFF7F0FE814641F2883A0EE0096889034C
:10191000EFE709688901ECE7FFF7E4FEA0EB0901B6
:10192000514502D90320BDE8F0872068696800F0BE
:101930000C00B0EB810FEFD1D8F80010404601F059
:101940000701B14207D90770006800F00700B042F4
:1019500001D00120E7E72878400705D52068E9682D
:1019600020F4E050084320602878000706D520685E
:10197000296920F4604040EAC100206000F058F876
:101980002168084AC1F30311515CC8400649086048
:1019900006480068FFF7CEFE0020C4E7003C024086
:1019A00008380240A427000820000020180000206A
:1019B0000F2202600C4A136803F0030343601368AC
:1019C00003F0F0038360136803F4E053C36012680C
:1019D0004FF4E05303EAD20202610448006800F0C9
:1019E000070008607047000008380240003C0240D1
:1019F0000448054900680968044AC1F38221515C22
:101A0000C84070472000002008380240B427000872
:101A10000448054900680968044AC1F34231515C31
:101A2000C84070472000002008380240B427000852
:101A3000154810B5006810F00C02144813D0144972
:101A4000042A0FD0082A0ED10F4C241F22682368C5
:101A500002F03F025B0207D52068C0F38810A0FBAC
:101A6000010106E0084610BD2168C1F38811A1FB01
:101A700000010023FEF7A4FB2168C1F30141491CCA
:101A80004900B0FBF1F010BD083802400024F4001A
:101A900040787D012DE9F84F04006ED02078DFF802
:101AA0004C93C007A9F104054AD009F1040001686C
:101AB000C1F38101012908D00068C0F38100022828
:101AC0000AD1D9F80000400206D52868800337D52E
:101AD00060680028E1D033E06068B0F5803F10D046
:101AE000B0F5A02F286810D020F480302860286836
:101AF00020F4802028606068A8B1FFF7F3FD064657
:101B00000DE0286840F48030F4E740F4802028603D
:101B1000F7E700BFFFF7E6FD801B642873D828684D
:101B20008003F7D50CE0FFF7DDFD064605E000BFBA
:101B3000FFF7D8FD801B6428F0D828688003F7D40D
:101B40002078DFF8AC8280074FF0000A3ED5A74826
:101B5000001D016811F00C0F08D00068C0F381006F
:101B600002280BD1D9F80000400207D4286880076A
:101B700016D5E068012800D112E033E1E068B8B181
:101B80000120C8F80000FFF7ADFD064605E000BFE4
:101B9000FFF7A8FD801B0228C0D828688007F7D56A
:101BA0002868216920F0F80040EAC10028600DE0B3
:101BB000C8F800A0FFF796FD064604E0FFF792FD87
:101BC000801B02281FD828688007F7D420780007D8
:101BD00022D5864F87486169703771B10121016054
:101BE000FFF780FD064604E0FFF77CFD801B02281E
:101BF00009D838688007F7D50EE0C0F800A0FFF7D5
:101C000071FD064605E082E0FFF76CFD801B0228AF
:101C10007DD838688007F7D42078400768D5DFF88A
:101C2000CCB100270BF13C0BDBF80000C0000BD45B
:101C3000DBF8001041F08051CBF80010DBF8000019
:101C4000012700F0805000906B4E3068C00510D422
:101C5000306840F480703060FFF744FD009005E08C
:101C6000FFF740FD0099401A022850D83068C0059F
:101C7000F6D55E4EA0686C3601280FD00528306876
:101C800010D020F001003060306820F00400306097
:101C9000A068B8B1FFF726FD00900FE0306840F073
:101CA0000100F4E740F004003060F7E7FFF71AFDA9
:101CB0000099411A41F28830814266D83068800725
:101CC000F4D50EE0FFF70EFD009007E0FFF70AFDE8
:101CD0000099411A41F28830814256D83068800715
:101CE000F4D42FB1DBF8001021F08051CBF80010B4
:101CF000A069C8B33D49091D0968C1F381010229E2
:101D00004AD00228504607D0C8F8600000E03CE006
:101D1000FFF7E8FC04463BE04746C8F86000FFF7E1
:101D2000E1FC064605E000BFFFF7DCFC801B022853
:101D30002BD828688001F7D4D4E907010843A16AA9
:101D40002E4A490802EB0141626A41EA82110843C6
:101D500094F82C1040EA0161C9F80010012038669F
:101D6000FFF7C0FC044606E03EE000BFFFF7BAFC08
:101D7000001B022809D828688001F7D534E000BF8D
:101D8000FFF7B0FC001B022802D90320BDE8F88F42
:101D900028688001F4D427E00128F7D0D9F80000A2
:101DA000E26900F4800191421CD1226A00F03F01F7
:101DB000914217D147F6C071626A0140B1EB821FB0
:101DC00010D1A26A4FF0FF3300F4403103EB52020E
:101DD000B1EB024F06D194F82C1000F07060B0EB1C
:101DE000016F01D00120D1E70020CFE70438024085
:101DF00000004742800E4742007000400000FFFF95
:101E00007047704710B5040003D094F83D0010B13E
:101E100007E0012010BD002084F83C00204600F0BF
:101E20001EF8022084F83D00211D206800F0B6FA5B
:101E3000012084F8460084F83E0084F83F0084F8CE
:101E4000400084F8410084F8420084F8430084F89C
:101E5000440084F8450084F83D00002010BD704720
:101E600090F83D10012901D001207047022180F82F
:101E70003D100168CA6842F00102CA600068114959
:101E8000884214D0B0F1804F11D00F4988420ED053
:101E90000E4988420BD00E49884208D00D4988422D
:101EA00005D00D49884202D00C49884204D181688E
:101EB00001F00701062903D0016841F0010101602A
:101EC000002070470000014000040040000800406E
:101ED000000C004000040140004001400018004098
:101EE000704770B50446006801694FF00005C943AA
:101EF000890715D4C168C943890711D4E91E016156
:101F000001202077206880698007204602D0FFF7F3
:101F1000E7FF04E000F098F8204600F096F82577F7
:101F200020680169C943490717D4C168C9434907F3
:101F300013D46FF0040101610220207720688069CA
:101F400010F4407F204602D0FFF7CAFF04E000F003
:101F50007BF8204600F079F8257720680169C943AD
:101F6000090716D4C168C943090712D46FF00801E4
:101F70000161042020772068C0698007204602D0D4
:101F8000FFF7AEFF04E000F05FF8204600F05DF8D8
:101F9000257720680169C943C90617D4C168C943B8
:101FA000C90613D46FF01001016108202077206862
:101FB000C06910F4407F204602D0FFF791FF04E093
:101FC00000F042F8204600F040F8257720680169CB
:101FD000C943C90708D1C168C943C90704D1891ECB
:101FE0000161204600F032F820680169C943090602
:101FF00009D4C168C943090605D46FF080010161A5
:102000002046FFF7FDFE20680169C943490609D44F
:10201000C168C943490605D46FF0400101612046FB
:1020200000F01EF820680169C94389060BD4C16815
:10203000C943890607D46FF0200101612046BDE83D
:102040007040FFF7DEBE70BD7047704700680349FF
:10205000884201D1FFF74CBB7047000000140040DC
:10206000704770B5040004D094F83D00002510B10D
:1020700006E0012070BD84F83C50204600F022F8B4
:10208000242084F83D002068C16821F40051C1601B
:10209000204600F0E7F92068016921F490410161D0
:1020A0002068416921F02A0141612068C16841F43A
:1020B0000051C1602564202084F83D0084F83E0072
:1020C000002070BD10B586B0044614216846FEF7A6
:1020D000C1F814492068884221D1134800210268C0
:1020E00042F010020260006800F0100005900E48F7
:1020F0001438026842F001020260006800F001003A
:1021000005904FF4C06000900220CDE9010103204A
:1021100003900720049069460448FFF7EBF906B0E6
:1021200010BD000000100140443802400000024091
:102130002DE9F843044690F83D001F4616460D462B
:1021400020284CD1C5B1BEB194F83C00012846D03E
:10215000012084F83C004FF00008C4F840802120A2
:1021600084F83D00FFF7BEFAA6848146E684A068A5
:10217000B0F5805F03D004E00120BDE8F88320695A
:1021800028B12E465FF0000584F83C800EE0002662
:10219000FAE78021204600F0EBF9A0B9AEB116F8BD
:1021A000010B21684860E08C401EE084E08C4B46C7
:1021B0004FF0000200970028EBD14FF0400120467D
:1021C00000F0D6F930B10320D7E735F8020BC0F3A1
:1021D0000800E6E7202084F83D000020CDE702203B
:1021E000CBE7FEE70F4810B50D49016006214160BD
:1021F00000214FF400328160C0E9031212014261F4
:102200000176012242768276C27601774177FEF727
:10221000F4FF002803D0BDE81040FEF741BB10BD1D
:1022200000640040A00800200F4810B50D4901606F
:102230000621416000214FF400328160C0E90312A1
:10224000120142610176012242768276C2760177DE
:102250004177FEF7D2FF002803D0BDE81040FEF71B
:102260001FBB10BD00680040C80800200D4808B51D
:10227000016841F080010160016801F08001009176
:10228000016841F002010160016801F00201009162
:10229000016841F001010160006800F00100009058
:1022A00008BD0000303802400C4810B50A490160F2
:1022B0004FF4E1314160002181600C22C160C0E92E
:1022C00004128161C161FFF7CCFE002803D0BDE894
:1022D0001040FEF7E5BA10BD00100140F0080020E4
:1022E000FEE7FEE7704770477047000030B593B0D7
:1022F00030216846FDF7AEFF14210CA8FDF7AAFFB8
:102300001D480025016841F080510160006800F01F
:10231000805011901948016841F4804101600068C3
:10232000022400F4804011900120039010200490BA
:10233000009406940820CDE90750A820CDE90904AF
:1023400004200B906846FFF7A5FB08B172B6FEE7C4
:102350000CA90F2081E831004FF4A0500F904FF4EA
:102360008050109005210CA8FFF788FA002801D0B2
:1023700072B6FEE713B030BD403802400070004036
:102380000248016841F470010160704788ED00E087
:102390000148FFF7A6BD000034090020F0B502682F
:1023A000254C264D264E274F274B4FF0804CA04200
:1023B00009D0604507D0A84205D0B04203D0B8424A
:1023C00001D0984204D122F0700E4A6842EA0E020F
:1023D000A0421BD0604519D0A84217D0B04215D0FA
:1023E000B84213D0984211D0184DA8420ED0184DC3
:1023F000A8420BD0174DA84208D0174DA84205D0CF
:10240000164DA84202D0164DA84203D122F44075C1
:10241000CA682A434D6922F080022A4302608A6812
:10242000C2620A688262A04201D0984201D1096961
:10243000016301214161F0BD000001400004004042
:1024400000080040000C0040000401400040014032
:10245000004401400048014000180040001C0040BA
:102460000020004070B5044600680169E26821F46C
:102470004051114301612169A068E2690843616923
:10248000114308432168CA6849F20C639A43024326
:10249000CA6020684169A26921F440711143416119
:1024A00031492068884202D03049884202D1FFF782
:1024B000AFFA01E0FFF79CFAE269002319216425D5
:1024C0003226B2F5004F626828D0A0FB0101930FBD
:1024D0009200FDF775FE0146B0FBF5F06FF01802B3
:1024E000504301EB800006EB0010B0FBF5F000F06C
:1024F000F002B1FBF5F002EB0012B1FBF5F06FF06A
:102500001803584301EB800006EB0010B0FBF5F018
:1025100000F00F0021681044886070BDA0FB01012D
:1025200092185B41FDF74CFE0146B0FBF5F002014D
:10253000B1FBF5F06FF01803584301EB800006EB98
:10254000C000B0FBF5F000F0F80002EB4002B1FB78
:10255000F5F0584301EB800006EBC000B0FBF5F04E
:1025600000F00700D6E70000001001400014014011
:102570002DE9F041984617460E460446069D27E091
:10258000681C25D02DB1FFF7ADF8A0EB0800A842DC
:102590001ED920680C3050E8001F21F4D07140E8AB
:1025A0000012002AF5D12068143050E8001F21F0F5
:1025B000010140E80012002AF5D1202084F83D00F6
:1025C00084F83E00002084F83C000320BDE8F08140
:1025D0002068006836EA000004D00020B842CFD05E
:1025E0000020F3E70120F9E7FEE70000014A024975
:1025F00000F023B85D260008240000200907090E1A
:10260000002804DB00F1E02080F80014704700F09F
:102610000F0000F1E02080F8141D704702E008C8A8
:10262000121F08C1002AFAD170477047002001E04C
:1026300001C1121F002AFBD170472DE9F041164657
:102640000F460446002503E03946B047641C6D1C64
:1026500020780028F8D12846BDE8F08113B54FF660
:10266000FF73012269460248FFF762FD00981CBD16
:10267000F00800202DED088BC4B0FFF741F8FFF7FC
:1026800035FEFFF7F3FDFFF70FFEFFF7ABFDFFF79A
:10269000CBFD2A48FEF79AF888216846FDF7DAFD57
:1026A0009FED270B9FED2AAB8DED080B9FED260BC1
:1026B0009FED29BB8DED0A0B8DED0CAB9FED288BAB
:1026C0008DED06BB9FED289B8DED128B9FED280BAA
:1026D0008DED149B8DED160B9FED270B88218DED55
:1026E000180B8DED1C8B8DED1E9B22A8FDF7B2FD06
:1026F0009FED230B11488DED2A0B9FED230B8DEDE4
:102700002C0B8DED2EAB8DED28BB8DED348B9FED1D
:10271000200B8DED369B8DED380B8DED3AAB8DEDAD
:102720003E8B8DED409BFEF7D7F8042222A9684628
:10273000FEF7B8F818A0FFF759FFFBE7A008002044
:102740000000000000003940666666666666064066
:102750000000000000000000000000000000F03F4A
:10276000000000000088D340000000000088D3C0B3
:1027700000000000F0B35A410000000000000040DB
:1027800000000000008035406666666666660240AE
:1027900000000000008051404A6F636B65720D0AB3
:1027A000000000000000000000000000010203041F
:1027B000060708090000000001020304DC270008E6
:1027C00000000020280000001C2600080428000843
:1027D00028000020580D00002C26000800000000F2
:1027E00000000000000000000000000000000000E9
:1027F0000100000010000000000000000024F400B0
:0428000000000000D4
:040000050800018965
:00000001FF
